{
  "_format": "hh-sol-artifact-1",
  "contractName": "CertificateNFT",
  "sourceName": "contracts/CertificateNFT.sol",
  "abi": [
    {
      "inputs": [
        {
          "internalType": "address",
          "name": "",
          "type": "address"
        }
      ],
      "name": "certificates",
      "outputs": [
        {
          "internalType": "address",
          "name": "studentAddress",
          "type": "address"
        },
        {
          "internalType": "string",
          "name": "studentName",
          "type": "string"
        },
        {
          "internalType": "string",
          "name": "subject",
          "type": "string"
        },
        {
          "internalType": "uint256",
          "name": "issueTimestamp",
          "type": "uint256"
        },
        {
          "internalType": "bytes",
          "name": "signature",
          "type": "bytes"
        }
      ],
      "stateMutability": "view",
      "type": "function"
    },
    {
      "inputs": [
        {
          "internalType": "address",
          "name": "studentAddress",
          "type": "address"
        }
      ],
      "name": "getCertificate",
      "outputs": [
        {
          "components": [
            {
              "internalType": "address",
              "name": "studentAddress",
              "type": "address"
            },
            {
              "internalType": "string",
              "name": "studentName",
              "type": "string"
            },
            {
              "internalType": "string",
              "name": "subject",
              "type": "string"
            },
            {
              "internalType": "uint256",
              "name": "issueTimestamp",
              "type": "uint256"
            },
            {
              "internalType": "bytes",
              "name": "signature",
              "type": "bytes"
            }
          ],
          "internalType": "struct CertificateNFT.Certificate",
          "name": "",
          "type": "tuple"
        }
      ],
      "stateMutability": "view",
      "type": "function"
    },
    {
      "inputs": [
        {
          "internalType": "address",
          "name": "studentAddress",
          "type": "address"
        },
        {
          "internalType": "string",
          "name": "studentName",
          "type": "string"
        },
        {
          "internalType": "string",
          "name": "subject",
          "type": "string"
        },
        {
          "internalType": "uint256",
          "name": "issueTimestamp",
          "type": "uint256"
        },
        {
          "internalType": "bytes",
          "name": "signature",
          "type": "bytes"
        }
      ],
      "name": "issueCertificate",
      "outputs": [],
      "stateMutability": "nonpayable",
      "type": "function"
    }
  ],
  "bytecode": "0x608060405234801561001057600080fd5b50611816806100206000396000f3fe608060405234801561001057600080fd5b50600436106100405760003560e01c806216e52614610045578063ead3370414610079578063fd531e9314610095575b600080fd5b61005f600480360381019061005a9190610aa0565b6100c5565b604051610070959493929190610bda565b60405180910390f35b610093600480360381019061008e9190610e44565b6102b3565b005b6100af60048036038101906100aa9190610aa0565b610485565b6040516100bc9190611049565b60405180910390f35b60006020528060005260406000206000915090508060000160009054906101000a900473ffffffffffffffffffffffffffffffffffffffff169080600101805461010e9061109a565b80601f016020809104026020016040519081016040528092919081815260200182805461013a9061109a565b80156101875780601f1061015c57610100808354040283529160200191610187565b820191906000526020600020905b81548152906001019060200180831161016a57829003601f168201915b50505050509080600201805461019c9061109a565b80601f01602080910402602001604051908101604052809291908181526020018280546101c89061109a565b80156102155780601f106101ea57610100808354040283529160200191610215565b820191906000526020600020905b8154815290600101906020018083116101f857829003601f168201915b5050505050908060030154908060040180546102309061109a565b80601f016020809104026020016040519081016040528092919081815260200182805461025c9061109a565b80156102a95780601f1061027e576101008083540402835291602001916102a9565b820191906000526020600020905b81548152906001019060200180831161028c57829003601f168201915b5050505050905085565b6000858585856040516020016102cc9493929190611170565b6040516020818303038152906040528051906020012090508573ffffffffffffffffffffffffffffffffffffffff1661031683610308846106f3565b61072990919063ffffffff16565b73ffffffffffffffffffffffffffffffffffffffff161461036c576040517f08c379a000000000000000000000000000000000000000000000000000000000815260040161036390611202565b60405180910390fd5b6040518060a001604052808773ffffffffffffffffffffffffffffffffffffffff168152602001868152602001858152602001848152602001838152506000808873ffffffffffffffffffffffffffffffffffffffff1673ffffffffffffffffffffffffffffffffffffffff16815260200190815260200160002060008201518160000160006101000a81548173ffffffffffffffffffffffffffffffffffffffff021916908373ffffffffffffffffffffffffffffffffffffffff160217905550602082015181600101908161044391906113ce565b50604082015181600201908161045991906113ce565b5060608201518160030155608082015181600401908161047991906114fb565b50905050505050505050565b61048d6109e9565b6000808373ffffffffffffffffffffffffffffffffffffffff1673ffffffffffffffffffffffffffffffffffffffff1681526020019081526020016000206040518060a00160405290816000820160009054906101000a900473ffffffffffffffffffffffffffffffffffffffff1673ffffffffffffffffffffffffffffffffffffffff1673ffffffffffffffffffffffffffffffffffffffff16815260200160018201805461053c9061109a565b80601f01602080910402602001604051908101604052809291908181526020018280546105689061109a565b80156105b55780601f1061058a576101008083540402835291602001916105b5565b820191906000526020600020905b81548152906001019060200180831161059857829003601f168201915b505050505081526020016002820180546105ce9061109a565b80601f01602080910402602001604051908101604052809291908181526020018280546105fa9061109a565b80156106475780601f1061061c57610100808354040283529160200191610647565b820191906000526020600020905b81548152906001019060200180831161062a57829003601f168201915b505050505081526020016003820154815260200160048201805461066a9061109a565b80601f01602080910402602001604051908101604052809291908181526020018280546106969061109a565b80156106e35780601f106106b8576101008083540402835291602001916106e3565b820191906000526020600020905b8154815290600101906020018083116106c657829003601f168201915b5050505050815250509050919050565b60007f19457468657265756d205369676e6564204d6573736167653a0a33320000000060005281601c52603c6000209050919050565b60008060006107388585610750565b91509150610745816107a1565b819250505092915050565b60008060418351036107915760008060006020860151925060408601519150606086015160001a905061078587828585610907565b9450945050505061079a565b60006002915091505b9250929050565b600060048111156107b5576107b46115cd565b5b8160048111156107c8576107c76115cd565b5b031561090457600160048111156107e2576107e16115cd565b5b8160048111156107f5576107f46115cd565b5b03610835576040517f08c379a000000000000000000000000000000000000000000000000000000000815260040161082c90611648565b60405180910390fd5b60026004811115610849576108486115cd565b5b81600481111561085c5761085b6115cd565b5b0361089c576040517f08c379a0000000000000000000000000000000000000000000000000000000008152600401610893906116b4565b60405180910390fd5b600360048111156108b0576108af6115cd565b5b8160048111156108c3576108c26115cd565b5b03610903576040517f08c379a00000000000000000000000000000000000000000000000000000000081526004016108fa90611746565b60405180910390fd5b5b50565b6000807f7fffffffffffffffffffffffffffffff5d576e7357a4501ddfe92f46681b20a08360001c11156109425760006003915091506109e0565b600060018787878760405160008152602001604052604051610967949392919061179b565b6020604051602081039080840390855afa158015610989573d6000803e3d6000fd5b505050602060405103519050600073ffffffffffffffffffffffffffffffffffffffff168173ffffffffffffffffffffffffffffffffffffffff16036109d7576000600192509250506109e0565b80600092509250505b94509492505050565b6040518060a00160405280600073ffffffffffffffffffffffffffffffffffffffff168152602001606081526020016060815260200160008152602001606081525090565b6000604051905090565b600080fd5b600080fd5b600073ffffffffffffffffffffffffffffffffffffffff82169050919050565b6000610a6d82610a42565b9050919050565b610a7d81610a62565b8114610a8857600080fd5b50565b600081359050610a9a81610a74565b92915050565b600060208284031215610ab657610ab5610a38565b5b6000610ac484828501610a8b565b91505092915050565b610ad681610a62565b82525050565b600081519050919050565b600082825260208201905092915050565b60005b83811015610b16578082015181840152602081019050610afb565b60008484015250505050565b6000601f19601f8301169050919050565b6000610b3e82610adc565b610b488185610ae7565b9350610b58818560208601610af8565b610b6181610b22565b840191505092915050565b6000819050919050565b610b7f81610b6c565b82525050565b600081519050919050565b600082825260208201905092915050565b6000610bac82610b85565b610bb68185610b90565b9350610bc6818560208601610af8565b610bcf81610b22565b840191505092915050565b600060a082019050610bef6000830188610acd565b8181036020830152610c018187610b33565b90508181036040830152610c158186610b33565b9050610c246060830185610b76565b8181036080830152610c368184610ba1565b90509695505050505050565b600080fd5b600080fd5b7f4e487b7100000000000000000000000000000000000000000000000000000000600052604160045260246000fd5b610c8482610b22565b810181811067ffffffffffffffff82111715610ca357610ca2610c4c565b5b80604052505050565b6000610cb6610a2e565b9050610cc28282610c7b565b919050565b600067ffffffffffffffff821115610ce257610ce1610c4c565b5b610ceb82610b22565b9050602081019050919050565b82818337600083830152505050565b6000610d1a610d1584610cc7565b610cac565b905082815260208101848484011115610d3657610d35610c47565b5b610d41848285610cf8565b509392505050565b600082601f830112610d5e57610d5d610c42565b5b8135610d6e848260208601610d07565b91505092915050565b610d8081610b6c565b8114610d8b57600080fd5b50565b600081359050610d9d81610d77565b92915050565b600067ffffffffffffffff821115610dbe57610dbd610c4c565b5b610dc782610b22565b9050602081019050919050565b6000610de7610de284610da3565b610cac565b905082815260208101848484011115610e0357610e02610c47565b5b610e0e848285610cf8565b509392505050565b600082601f830112610e2b57610e2a610c42565b5b8135610e3b848260208601610dd4565b91505092915050565b600080600080600060a08688031215610e6057610e5f610a38565b5b6000610e6e88828901610a8b565b955050602086013567ffffffffffffffff811115610e8f57610e8e610a3d565b5b610e9b88828901610d49565b945050604086013567ffffffffffffffff811115610ebc57610ebb610a3d565b5b610ec888828901610d49565b9350506060610ed988828901610d8e565b925050608086013567ffffffffffffffff811115610efa57610ef9610a3d565b5b610f0688828901610e16565b9150509295509295909350565b610f1c81610a62565b82525050565b600082825260208201905092915050565b6000610f3e82610adc565b610f488185610f22565b9350610f58818560208601610af8565b610f6181610b22565b840191505092915050565b610f7581610b6c565b82525050565b600082825260208201905092915050565b6000610f9782610b85565b610fa18185610f7b565b9350610fb1818560208601610af8565b610fba81610b22565b840191505092915050565b600060a083016000830151610fdd6000860182610f13565b5060208301518482036020860152610ff58282610f33565b9150506040830151848203604086015261100f8282610f33565b91505060608301516110246060860182610f6c565b506080830151848203608086015261103c8282610f8c565b9150508091505092915050565b600060208201905081810360008301526110638184610fc5565b905092915050565b7f4e487b7100000000000000000000000000000000000000000000000000000000600052602260045260246000fd5b600060028204905060018216806110b257607f821691505b6020821081036110c5576110c461106b565b5b50919050565b60008160601b9050919050565b60006110e3826110cb565b9050919050565b60006110f5826110d8565b9050919050565b61110d61110882610a62565b6110ea565b82525050565b600081905092915050565b600061112982610adc565b6111338185611113565b9350611143818560208601610af8565b80840191505092915050565b6000819050919050565b61116a61116582610b6c565b61114f565b82525050565b600061117c82876110fc565b60148201915061118c828661111e565b9150611198828561111e565b91506111a48284611159565b60208201915081905095945050505050565b7f496e76616c6964207369676e6174757265000000000000000000000000000000600082015250565b60006111ec601183610ae7565b91506111f7826111b6565b602082019050919050565b6000602082019050818103600083015261121b816111df565b9050919050565b60008190508160005260206000209050919050565b60006020601f8301049050919050565b600082821b905092915050565b6000600883026112847fffffffffffffffffffffffffffffffffffffffffffffffffffffffffffffffff82611247565b61128e8683611247565b95508019841693508086168417925050509392505050565b6000819050919050565b60006112cb6112c66112c184610b6c565b6112a6565b610b6c565b9050919050565b6000819050919050565b6112e5836112b0565b6112f96112f1826112d2565b848454611254565b825550505050565b600090565b61130e611301565b6113198184846112dc565b505050565b5b8181101561133d57611332600082611306565b60018101905061131f565b5050565b601f8211156113825761135381611222565b61135c84611237565b8101602085101561136b578190505b61137f61137785611237565b83018261131e565b50505b505050565b600082821c905092915050565b60006113a560001984600802611387565b1980831691505092915050565b60006113be8383611394565b9150826002028217905092915050565b6113d782610adc565b67ffffffffffffffff8111156113f0576113ef610c4c565b5b6113fa825461109a565b611405828285611341565b600060209050601f8311600181146114385760008415611426578287015190505b61143085826113b2565b865550611498565b601f19841661144686611222565b60005b8281101561146e57848901518255600182019150602085019450602081019050611449565b8683101561148b5784890151611487601f891682611394565b8355505b6001600288020188555050505b505050505050565b60008190508160005260206000209050919050565b601f8211156114f6576114c7816114a0565b6114d084611237565b810160208510156114df578190505b6114f36114eb85611237565b83018261131e565b50505b505050565b61150482610b85565b67ffffffffffffffff81111561151d5761151c610c4c565b5b611527825461109a565b6115328282856114b5565b600060209050601f8311600181146115655760008415611553578287015190505b61155d85826113b2565b8655506115c5565b601f198416611573866114a0565b60005b8281101561159b57848901518255600182019150602085019450602081019050611576565b868310156115b857848901516115b4601f891682611394565b8355505b6001600288020188555050505b505050505050565b7f4e487b7100000000000000000000000000000000000000000000000000000000600052602160045260246000fd5b7f45434453413a20696e76616c6964207369676e61747572650000000000000000600082015250565b6000611632601883610ae7565b915061163d826115fc565b602082019050919050565b6000602082019050818103600083015261166181611625565b9050919050565b7f45434453413a20696e76616c6964207369676e6174757265206c656e67746800600082015250565b600061169e601f83610ae7565b91506116a982611668565b602082019050919050565b600060208201905081810360008301526116cd81611691565b9050919050565b7f45434453413a20696e76616c6964207369676e6174757265202773272076616c60008201527f7565000000000000000000000000000000000000000000000000000000000000602082015250565b6000611730602283610ae7565b915061173b826116d4565b604082019050919050565b6000602082019050818103600083015261175f81611723565b9050919050565b6000819050919050565b61177981611766565b82525050565b600060ff82169050919050565b6117958161177f565b82525050565b60006080820190506117b06000830187611770565b6117bd602083018661178c565b6117ca6040830185611770565b6117d76060830184611770565b9594505050505056fea2646970667358221220576d2e6c16da7162715d2be24df6d05c0b2f4a678a92e1a4b2e6be790000709164736f6c63430008130033",
  "linkReferences": {},
  "deployedLinkReferences": {}
}