{"contracts/CertificateNFT.sol":{"CertificateNFT":{"abi":[{"inputs":[{"internalType":"address","name":"","type":"address"}],"name":"certificates","outputs":[{"internalType":"address","name":"studentAddress","type":"address"},{"internalType":"string","name":"studentName","type":"string"},{"internalType":"string","name":"subject","type":"string"},{"internalType":"uint256","name":"issueTimestamp","type":"uint256"},{"internalType":"bytes","name":"signature","type":"bytes"}],"stateMutability":"view","type":"function"},{"inputs":[{"internalType":"address","name":"studentAddress","type":"address"}],"name":"getCertificate","outputs":[{"components":[{"internalType":"address","name":"studentAddress","type":"address"},{"internalType":"string","name":"studentName","type":"string"},{"internalType":"string","name":"subject","type":"string"},{"internalType":"uint256","name":"issueTimestamp","type":"uint256"},{"internalType":"bytes","name":"signature","type":"bytes"}],"internalType":"struct CertificateNFT.Certificate","name":"","type":"tuple"}],"stateMutability":"view","type":"function"},{"inputs":[{"internalType":"address","name":"studentAddress","type":"address"},{"internalType":"string","name":"studentName","type":"string"},{"internalType":"string","name":"subject","type":"string"},{"internalType":"uint256","name":"issueTimestamp","type":"uint256"},{"internalType":"bytes","name":"signature","type":"bytes"}],"name":"issueCertificate","outputs":[],"stateMutability":"nonpayable","type":"function"}],"evm":{"bytecode":{"linkReferences":{},"object":"608060405234801561001057600080fd5b50611816806100206000396000f3fe608060405234801561001057600080fd5b50600436106100405760003560e01c806216e52614610045578063ead3370414610079578063fd531e9314610095575b600080fd5b61005f600480360381019061005a9190610aa0565b6100c5565b604051610070959493929190610bda565b60405180910390f35b610093600480360381019061008e9190610e44565b6102b3565b005b6100af60048036038101906100aa9190610aa0565b610485565b6040516100bc9190611049565b60405180910390f35b60006020528060005260406000206000915090508060000160009054906101000a900473ffffffffffffffffffffffffffffffffffffffff169080600101805461010e9061109a565b80601f016020809104026020016040519081016040528092919081815260200182805461013a9061109a565b80156101875780601f1061015c57610100808354040283529160200191610187565b820191906000526020600020905b81548152906001019060200180831161016a57829003601f168201915b50505050509080600201805461019c9061109a565b80601f01602080910402602001604051908101604052809291908181526020018280546101c89061109a565b80156102155780601f106101ea57610100808354040283529160200191610215565b820191906000526020600020905b8154815290600101906020018083116101f857829003601f168201915b5050505050908060030154908060040180546102309061109a565b80601f016020809104026020016040519081016040528092919081815260200182805461025c9061109a565b80156102a95780601f1061027e576101008083540402835291602001916102a9565b820191906000526020600020905b81548152906001019060200180831161028c57829003601f168201915b5050505050905085565b6000858585856040516020016102cc9493929190611170565b6040516020818303038152906040528051906020012090508573ffffffffffffffffffffffffffffffffffffffff1661031683610308846106f3565b61072990919063ffffffff16565b73ffffffffffffffffffffffffffffffffffffffff161461036c576040517f08c379a000000000000000000000000000000000000000000000000000000000815260040161036390611202565b60405180910390fd5b6040518060a001604052808773ffffffffffffffffffffffffffffffffffffffff168152602001868152602001858152602001848152602001838152506000808873ffffffffffffffffffffffffffffffffffffffff1673ffffffffffffffffffffffffffffffffffffffff16815260200190815260200160002060008201518160000160006101000a81548173ffffffffffffffffffffffffffffffffffffffff021916908373ffffffffffffffffffffffffffffffffffffffff160217905550602082015181600101908161044391906113ce565b50604082015181600201908161045991906113ce565b5060608201518160030155608082015181600401908161047991906114fb565b50905050505050505050565b61048d6109e9565b6000808373ffffffffffffffffffffffffffffffffffffffff1673ffffffffffffffffffffffffffffffffffffffff1681526020019081526020016000206040518060a00160405290816000820160009054906101000a900473ffffffffffffffffffffffffffffffffffffffff1673ffffffffffffffffffffffffffffffffffffffff1673ffffffffffffffffffffffffffffffffffffffff16815260200160018201805461053c9061109a565b80601f01602080910402602001604051908101604052809291908181526020018280546105689061109a565b80156105b55780601f1061058a576101008083540402835291602001916105b5565b820191906000526020600020905b81548152906001019060200180831161059857829003601f168201915b505050505081526020016002820180546105ce9061109a565b80601f01602080910402602001604051908101604052809291908181526020018280546105fa9061109a565b80156106475780601f1061061c57610100808354040283529160200191610647565b820191906000526020600020905b81548152906001019060200180831161062a57829003601f168201915b505050505081526020016003820154815260200160048201805461066a9061109a565b80601f01602080910402602001604051908101604052809291908181526020018280546106969061109a565b80156106e35780601f106106b8576101008083540402835291602001916106e3565b820191906000526020600020905b8154815290600101906020018083116106c657829003601f168201915b5050505050815250509050919050565b60007f19457468657265756d205369676e6564204d6573736167653a0a33320000000060005281601c52603c6000209050919050565b60008060006107388585610750565b91509150610745816107a1565b819250505092915050565b60008060418351036107915760008060006020860151925060408601519150606086015160001a905061078587828585610907565b9450945050505061079a565b60006002915091505b9250929050565b600060048111156107b5576107b46115cd565b5b8160048111156107c8576107c76115cd565b5b031561090457600160048111156107e2576107e16115cd565b5b8160048111156107f5576107f46115cd565b5b03610835576040517f08c379a000000000000000000000000000000000000000000000000000000000815260040161082c90611648565b60405180910390fd5b60026004811115610849576108486115cd565b5b81600481111561085c5761085b6115cd565b5b0361089c576040517f08c379a0000000000000000000000000000000000000000000000000000000008152600401610893906116b4565b60405180910390fd5b600360048111156108b0576108af6115cd565b5b8160048111156108c3576108c26115cd565b5b03610903576040517f08c379a00000000000000000000000000000000000000000000000000000000081526004016108fa90611746565b60405180910390fd5b5b50565b6000807f7fffffffffffffffffffffffffffffff5d576e7357a4501ddfe92f46681b20a08360001c11156109425760006003915091506109e0565b600060018787878760405160008152602001604052604051610967949392919061179b565b6020604051602081039080840390855afa158015610989573d6000803e3d6000fd5b505050602060405103519050600073ffffffffffffffffffffffffffffffffffffffff168173ffffffffffffffffffffffffffffffffffffffff16036109d7576000600192509250506109e0565b80600092509250505b94509492505050565b6040518060a00160405280600073ffffffffffffffffffffffffffffffffffffffff168152602001606081526020016060815260200160008152602001606081525090565b6000604051905090565b600080fd5b600080fd5b600073ffffffffffffffffffffffffffffffffffffffff82169050919050565b6000610a6d82610a42565b9050919050565b610a7d81610a62565b8114610a8857600080fd5b50565b600081359050610a9a81610a74565b92915050565b600060208284031215610ab657610ab5610a38565b5b6000610ac484828501610a8b565b91505092915050565b610ad681610a62565b82525050565b600081519050919050565b600082825260208201905092915050565b60005b83811015610b16578082015181840152602081019050610afb565b60008484015250505050565b6000601f19601f8301169050919050565b6000610b3e82610adc565b610b488185610ae7565b9350610b58818560208601610af8565b610b6181610b22565b840191505092915050565b6000819050919050565b610b7f81610b6c565b82525050565b600081519050919050565b600082825260208201905092915050565b6000610bac82610b85565b610bb68185610b90565b9350610bc6818560208601610af8565b610bcf81610b22565b840191505092915050565b600060a082019050610bef6000830188610acd565b8181036020830152610c018187610b33565b90508181036040830152610c158186610b33565b9050610c246060830185610b76565b8181036080830152610c368184610ba1565b90509695505050505050565b600080fd5b600080fd5b7f4e487b7100000000000000000000000000000000000000000000000000000000600052604160045260246000fd5b610c8482610b22565b810181811067ffffffffffffffff82111715610ca357610ca2610c4c565b5b80604052505050565b6000610cb6610a2e565b9050610cc28282610c7b565b919050565b600067ffffffffffffffff821115610ce257610ce1610c4c565b5b610ceb82610b22565b9050602081019050919050565b82818337600083830152505050565b6000610d1a610d1584610cc7565b610cac565b905082815260208101848484011115610d3657610d35610c47565b5b610d41848285610cf8565b509392505050565b600082601f830112610d5e57610d5d610c42565b5b8135610d6e848260208601610d07565b91505092915050565b610d8081610b6c565b8114610d8b57600080fd5b50565b600081359050610d9d81610d77565b92915050565b600067ffffffffffffffff821115610dbe57610dbd610c4c565b5b610dc782610b22565b9050602081019050919050565b6000610de7610de284610da3565b610cac565b905082815260208101848484011115610e0357610e02610c47565b5b610e0e848285610cf8565b509392505050565b600082601f830112610e2b57610e2a610c42565b5b8135610e3b848260208601610dd4565b91505092915050565b600080600080600060a08688031215610e6057610e5f610a38565b5b6000610e6e88828901610a8b565b955050602086013567ffffffffffffffff811115610e8f57610e8e610a3d565b5b610e9b88828901610d49565b945050604086013567ffffffffffffffff811115610ebc57610ebb610a3d565b5b610ec888828901610d49565b9350506060610ed988828901610d8e565b925050608086013567ffffffffffffffff811115610efa57610ef9610a3d565b5b610f0688828901610e16565b9150509295509295909350565b610f1c81610a62565b82525050565b600082825260208201905092915050565b6000610f3e82610adc565b610f488185610f22565b9350610f58818560208601610af8565b610f6181610b22565b840191505092915050565b610f7581610b6c565b82525050565b600082825260208201905092915050565b6000610f9782610b85565b610fa18185610f7b565b9350610fb1818560208601610af8565b610fba81610b22565b840191505092915050565b600060a083016000830151610fdd6000860182610f13565b5060208301518482036020860152610ff58282610f33565b9150506040830151848203604086015261100f8282610f33565b91505060608301516110246060860182610f6c565b506080830151848203608086015261103c8282610f8c565b9150508091505092915050565b600060208201905081810360008301526110638184610fc5565b905092915050565b7f4e487b7100000000000000000000000000000000000000000000000000000000600052602260045260246000fd5b600060028204905060018216806110b257607f821691505b6020821081036110c5576110c461106b565b5b50919050565b60008160601b9050919050565b60006110e3826110cb565b9050919050565b60006110f5826110d8565b9050919050565b61110d61110882610a62565b6110ea565b82525050565b600081905092915050565b600061112982610adc565b6111338185611113565b9350611143818560208601610af8565b80840191505092915050565b6000819050919050565b61116a61116582610b6c565b61114f565b82525050565b600061117c82876110fc565b60148201915061118c828661111e565b9150611198828561111e565b91506111a48284611159565b60208201915081905095945050505050565b7f496e76616c6964207369676e6174757265000000000000000000000000000000600082015250565b60006111ec601183610ae7565b91506111f7826111b6565b602082019050919050565b6000602082019050818103600083015261121b816111df565b9050919050565b60008190508160005260206000209050919050565b60006020601f8301049050919050565b600082821b905092915050565b6000600883026112847fffffffffffffffffffffffffffffffffffffffffffffffffffffffffffffffff82611247565b61128e8683611247565b95508019841693508086168417925050509392505050565b6000819050919050565b60006112cb6112c66112c184610b6c565b6112a6565b610b6c565b9050919050565b6000819050919050565b6112e5836112b0565b6112f96112f1826112d2565b848454611254565b825550505050565b600090565b61130e611301565b6113198184846112dc565b505050565b5b8181101561133d57611332600082611306565b60018101905061131f565b5050565b601f8211156113825761135381611222565b61135c84611237565b8101602085101561136b578190505b61137f61137785611237565b83018261131e565b50505b505050565b600082821c905092915050565b60006113a560001984600802611387565b1980831691505092915050565b60006113be8383611394565b9150826002028217905092915050565b6113d782610adc565b67ffffffffffffffff8111156113f0576113ef610c4c565b5b6113fa825461109a565b611405828285611341565b600060209050601f8311600181146114385760008415611426578287015190505b61143085826113b2565b865550611498565b601f19841661144686611222565b60005b8281101561146e57848901518255600182019150602085019450602081019050611449565b8683101561148b5784890151611487601f891682611394565b8355505b6001600288020188555050505b505050505050565b60008190508160005260206000209050919050565b601f8211156114f6576114c7816114a0565b6114d084611237565b810160208510156114df578190505b6114f36114eb85611237565b83018261131e565b50505b505050565b61150482610b85565b67ffffffffffffffff81111561151d5761151c610c4c565b5b611527825461109a565b6115328282856114b5565b600060209050601f8311600181146115655760008415611553578287015190505b61155d85826113b2565b8655506115c5565b601f198416611573866114a0565b60005b8281101561159b57848901518255600182019150602085019450602081019050611576565b868310156115b857848901516115b4601f891682611394565b8355505b6001600288020188555050505b505050505050565b7f4e487b7100000000000000000000000000000000000000000000000000000000600052602160045260246000fd5b7f45434453413a20696e76616c6964207369676e61747572650000000000000000600082015250565b6000611632601883610ae7565b915061163d826115fc565b602082019050919050565b6000602082019050818103600083015261166181611625565b9050919050565b7f45434453413a20696e76616c6964207369676e6174757265206c656e67746800600082015250565b600061169e601f83610ae7565b91506116a982611668565b602082019050919050565b600060208201905081810360008301526116cd81611691565b9050919050565b7f45434453413a20696e76616c6964207369676e6174757265202773272076616c60008201527f7565000000000000000000000000000000000000000000000000000000000000602082015250565b6000611730602283610ae7565b915061173b826116d4565b604082019050919050565b6000602082019050818103600083015261175f81611723565b9050919050565b6000819050919050565b61177981611766565b82525050565b600060ff82169050919050565b6117958161177f565b82525050565b60006080820190506117b06000830187611770565b6117bd602083018661178c565b6117ca6040830185611770565b6117d76060830184611770565b9594505050505056fea2646970667358221220576d2e6c16da7162715d2be24df6d05c0b2f4a678a92e1a4b2e6be790000709164736f6c63430008130033","opcodes":"PUSH1 0x80 PUSH1 0x40 MSTORE CALLVALUE DUP1 ISZERO PUSH2 0x10 JUMPI PUSH1 0x0 DUP1 REVERT JUMPDEST POP PUSH2 0x1816 DUP1 PUSH2 0x20 PUSH1 0x0 CODECOPY PUSH1 0x0 RETURN INVALID PUSH1 0x80 PUSH1 0x40 MSTORE CALLVALUE DUP1 ISZERO PUSH2 0x10 JUMPI PUSH1 0x0 DUP1 REVERT JUMPDEST POP PUSH1 0x4 CALLDATASIZE LT PUSH2 0x40 JUMPI PUSH1 0x0 CALLDATALOAD PUSH1 0xE0 SHR DUP1 PUSH3 0x16E526 EQ PUSH2 0x45 JUMPI DUP1 PUSH4 0xEAD33704 EQ PUSH2 0x79 JUMPI DUP1 PUSH4 0xFD531E93 EQ PUSH2 0x95 JUMPI JUMPDEST PUSH1 0x0 DUP1 REVERT JUMPDEST PUSH2 0x5F PUSH1 0x4 DUP1 CALLDATASIZE SUB DUP2 ADD SWAP1 PUSH2 0x5A SWAP2 SWAP1 PUSH2 0xAA0 JUMP JUMPDEST PUSH2 0xC5 JUMP JUMPDEST PUSH1 0x40 MLOAD PUSH2 0x70 SWAP6 SWAP5 SWAP4 SWAP3 SWAP2 SWAP1 PUSH2 0xBDA JUMP JUMPDEST PUSH1 0x40 MLOAD DUP1 SWAP2 SUB SWAP1 RETURN JUMPDEST PUSH2 0x93 PUSH1 0x4 DUP1 CALLDATASIZE SUB DUP2 ADD SWAP1 PUSH2 0x8E SWAP2 SWAP1 PUSH2 0xE44 JUMP JUMPDEST PUSH2 0x2B3 JUMP JUMPDEST STOP JUMPDEST PUSH2 0xAF PUSH1 0x4 DUP1 CALLDATASIZE SUB DUP2 ADD SWAP1 PUSH2 0xAA SWAP2 SWAP1 PUSH2 0xAA0 JUMP JUMPDEST PUSH2 0x485 JUMP JUMPDEST PUSH1 0x40 MLOAD PUSH2 0xBC SWAP2 SWAP1 PUSH2 0x1049 JUMP JUMPDEST PUSH1 0x40 MLOAD DUP1 SWAP2 SUB SWAP1 RETURN JUMPDEST PUSH1 0x0 PUSH1 0x20 MSTORE DUP1 PUSH1 0x0 MSTORE PUSH1 0x40 PUSH1 0x0 KECCAK256 PUSH1 0x0 SWAP2 POP SWAP1 POP DUP1 PUSH1 0x0 ADD PUSH1 0x0 SWAP1 SLOAD SWAP1 PUSH2 0x100 EXP SWAP1 DIV PUSH20 0xFFFFFFFFFFFFFFFFFFFFFFFFFFFFFFFFFFFFFFFF AND SWAP1 DUP1 PUSH1 0x1 ADD DUP1 SLOAD PUSH2 0x10E SWAP1 PUSH2 0x109A JUMP JUMPDEST DUP1 PUSH1 0x1F ADD PUSH1 0x20 DUP1 SWAP2 DIV MUL PUSH1 0x20 ADD PUSH1 0x40 MLOAD SWAP1 DUP2 ADD PUSH1 0x40 MSTORE DUP1 SWAP3 SWAP2 SWAP1 DUP2 DUP2 MSTORE PUSH1 0x20 ADD DUP3 DUP1 SLOAD PUSH2 0x13A SWAP1 PUSH2 0x109A JUMP JUMPDEST DUP1 ISZERO PUSH2 0x187 JUMPI DUP1 PUSH1 0x1F LT PUSH2 0x15C JUMPI PUSH2 0x100 DUP1 DUP4 SLOAD DIV MUL DUP4 MSTORE SWAP2 PUSH1 0x20 ADD SWAP2 PUSH2 0x187 JUMP JUMPDEST DUP3 ADD SWAP2 SWAP1 PUSH1 0x0 MSTORE PUSH1 0x20 PUSH1 0x0 KECCAK256 SWAP1 JUMPDEST DUP2 SLOAD DUP2 MSTORE SWAP1 PUSH1 0x1 ADD SWAP1 PUSH1 0x20 ADD DUP1 DUP4 GT PUSH2 0x16A JUMPI DUP3 SWAP1 SUB PUSH1 0x1F AND DUP3 ADD SWAP2 JUMPDEST POP POP POP POP POP SWAP1 DUP1 PUSH1 0x2 ADD DUP1 SLOAD PUSH2 0x19C SWAP1 PUSH2 0x109A JUMP JUMPDEST DUP1 PUSH1 0x1F ADD PUSH1 0x20 DUP1 SWAP2 DIV MUL PUSH1 0x20 ADD PUSH1 0x40 MLOAD SWAP1 DUP2 ADD PUSH1 0x40 MSTORE DUP1 SWAP3 SWAP2 SWAP1 DUP2 DUP2 MSTORE PUSH1 0x20 ADD DUP3 DUP1 SLOAD PUSH2 0x1C8 SWAP1 PUSH2 0x109A JUMP JUMPDEST DUP1 ISZERO PUSH2 0x215 JUMPI DUP1 PUSH1 0x1F LT PUSH2 0x1EA JUMPI PUSH2 0x100 DUP1 DUP4 SLOAD DIV MUL DUP4 MSTORE SWAP2 PUSH1 0x20 ADD SWAP2 PUSH2 0x215 JUMP JUMPDEST DUP3 ADD SWAP2 SWAP1 PUSH1 0x0 MSTORE PUSH1 0x20 PUSH1 0x0 KECCAK256 SWAP1 JUMPDEST DUP2 SLOAD DUP2 MSTORE SWAP1 PUSH1 0x1 ADD SWAP1 PUSH1 0x20 ADD DUP1 DUP4 GT PUSH2 0x1F8 JUMPI DUP3 SWAP1 SUB PUSH1 0x1F AND DUP3 ADD SWAP2 JUMPDEST POP POP POP POP POP SWAP1 DUP1 PUSH1 0x3 ADD SLOAD SWAP1 DUP1 PUSH1 0x4 ADD DUP1 SLOAD PUSH2 0x230 SWAP1 PUSH2 0x109A JUMP JUMPDEST DUP1 PUSH1 0x1F ADD PUSH1 0x20 DUP1 SWAP2 DIV MUL PUSH1 0x20 ADD PUSH1 0x40 MLOAD SWAP1 DUP2 ADD PUSH1 0x40 MSTORE DUP1 SWAP3 SWAP2 SWAP1 DUP2 DUP2 MSTORE PUSH1 0x20 ADD DUP3 DUP1 SLOAD PUSH2 0x25C SWAP1 PUSH2 0x109A JUMP JUMPDEST DUP1 ISZERO PUSH2 0x2A9 JUMPI DUP1 PUSH1 0x1F LT PUSH2 0x27E JUMPI PUSH2 0x100 DUP1 DUP4 SLOAD DIV MUL DUP4 MSTORE SWAP2 PUSH1 0x20 ADD SWAP2 PUSH2 0x2A9 JUMP JUMPDEST DUP3 ADD SWAP2 SWAP1 PUSH1 0x0 MSTORE PUSH1 0x20 PUSH1 0x0 KECCAK256 SWAP1 JUMPDEST DUP2 SLOAD DUP2 MSTORE SWAP1 PUSH1 0x1 ADD SWAP1 PUSH1 0x20 ADD DUP1 DUP4 GT PUSH2 0x28C JUMPI DUP3 SWAP1 SUB PUSH1 0x1F AND DUP3 ADD SWAP2 JUMPDEST POP POP POP POP POP SWAP1 POP DUP6 JUMP JUMPDEST PUSH1 0x0 DUP6 DUP6 DUP6 DUP6 PUSH1 0x40 MLOAD PUSH1 0x20 ADD PUSH2 0x2CC SWAP5 SWAP4 SWAP3 SWAP2 SWAP1 PUSH2 0x1170 JUMP JUMPDEST PUSH1 0x40 MLOAD PUSH1 0x20 DUP2 DUP4 SUB SUB DUP2 MSTORE SWAP1 PUSH1 0x40 MSTORE DUP1 MLOAD SWAP1 PUSH1 0x20 ADD KECCAK256 SWAP1 POP DUP6 PUSH20 0xFFFFFFFFFFFFFFFFFFFFFFFFFFFFFFFFFFFFFFFF AND PUSH2 0x316 DUP4 PUSH2 0x308 DUP5 PUSH2 0x6F3 JUMP JUMPDEST PUSH2 0x729 SWAP1 SWAP2 SWAP1 PUSH4 0xFFFFFFFF AND JUMP JUMPDEST PUSH20 0xFFFFFFFFFFFFFFFFFFFFFFFFFFFFFFFFFFFFFFFF AND EQ PUSH2 0x36C JUMPI PUSH1 0x40 MLOAD PUSH32 0x8C379A000000000000000000000000000000000000000000000000000000000 DUP2 MSTORE PUSH1 0x4 ADD PUSH2 0x363 SWAP1 PUSH2 0x1202 JUMP JUMPDEST PUSH1 0x40 MLOAD DUP1 SWAP2 SUB SWAP1 REVERT JUMPDEST PUSH1 0x40 MLOAD DUP1 PUSH1 0xA0 ADD PUSH1 0x40 MSTORE DUP1 DUP8 PUSH20 0xFFFFFFFFFFFFFFFFFFFFFFFFFFFFFFFFFFFFFFFF AND DUP2 MSTORE PUSH1 0x20 ADD DUP7 DUP2 MSTORE PUSH1 0x20 ADD DUP6 DUP2 MSTORE PUSH1 0x20 ADD DUP5 DUP2 MSTORE PUSH1 0x20 ADD DUP4 DUP2 MSTORE POP PUSH1 0x0 DUP1 DUP9 PUSH20 0xFFFFFFFFFFFFFFFFFFFFFFFFFFFFFFFFFFFFFFFF AND PUSH20 0xFFFFFFFFFFFFFFFFFFFFFFFFFFFFFFFFFFFFFFFF AND DUP2 MSTORE PUSH1 0x20 ADD SWAP1 DUP2 MSTORE PUSH1 0x20 ADD PUSH1 0x0 KECCAK256 PUSH1 0x0 DUP3 ADD MLOAD DUP2 PUSH1 0x0 ADD PUSH1 0x0 PUSH2 0x100 EXP DUP2 SLOAD DUP2 PUSH20 0xFFFFFFFFFFFFFFFFFFFFFFFFFFFFFFFFFFFFFFFF MUL NOT AND SWAP1 DUP4 PUSH20 0xFFFFFFFFFFFFFFFFFFFFFFFFFFFFFFFFFFFFFFFF AND MUL OR SWAP1 SSTORE POP PUSH1 0x20 DUP3 ADD MLOAD DUP2 PUSH1 0x1 ADD SWAP1 DUP2 PUSH2 0x443 SWAP2 SWAP1 PUSH2 0x13CE JUMP JUMPDEST POP PUSH1 0x40 DUP3 ADD MLOAD DUP2 PUSH1 0x2 ADD SWAP1 DUP2 PUSH2 0x459 SWAP2 SWAP1 PUSH2 0x13CE JUMP JUMPDEST POP PUSH1 0x60 DUP3 ADD MLOAD DUP2 PUSH1 0x3 ADD SSTORE PUSH1 0x80 DUP3 ADD MLOAD DUP2 PUSH1 0x4 ADD SWAP1 DUP2 PUSH2 0x479 SWAP2 SWAP1 PUSH2 0x14FB JUMP JUMPDEST POP SWAP1 POP POP POP POP POP POP POP POP JUMP JUMPDEST PUSH2 0x48D PUSH2 0x9E9 JUMP JUMPDEST PUSH1 0x0 DUP1 DUP4 PUSH20 0xFFFFFFFFFFFFFFFFFFFFFFFFFFFFFFFFFFFFFFFF AND PUSH20 0xFFFFFFFFFFFFFFFFFFFFFFFFFFFFFFFFFFFFFFFF AND DUP2 MSTORE PUSH1 0x20 ADD SWAP1 DUP2 MSTORE PUSH1 0x20 ADD PUSH1 0x0 KECCAK256 PUSH1 0x40 MLOAD DUP1 PUSH1 0xA0 ADD PUSH1 0x40 MSTORE SWAP1 DUP2 PUSH1 0x0 DUP3 ADD PUSH1 0x0 SWAP1 SLOAD SWAP1 PUSH2 0x100 EXP SWAP1 DIV PUSH20 0xFFFFFFFFFFFFFFFFFFFFFFFFFFFFFFFFFFFFFFFF AND PUSH20 0xFFFFFFFFFFFFFFFFFFFFFFFFFFFFFFFFFFFFFFFF AND PUSH20 0xFFFFFFFFFFFFFFFFFFFFFFFFFFFFFFFFFFFFFFFF AND DUP2 MSTORE PUSH1 0x20 ADD PUSH1 0x1 DUP3 ADD DUP1 SLOAD PUSH2 0x53C SWAP1 PUSH2 0x109A JUMP JUMPDEST DUP1 PUSH1 0x1F ADD PUSH1 0x20 DUP1 SWAP2 DIV MUL PUSH1 0x20 ADD PUSH1 0x40 MLOAD SWAP1 DUP2 ADD PUSH1 0x40 MSTORE DUP1 SWAP3 SWAP2 SWAP1 DUP2 DUP2 MSTORE PUSH1 0x20 ADD DUP3 DUP1 SLOAD PUSH2 0x568 SWAP1 PUSH2 0x109A JUMP JUMPDEST DUP1 ISZERO PUSH2 0x5B5 JUMPI DUP1 PUSH1 0x1F LT PUSH2 0x58A JUMPI PUSH2 0x100 DUP1 DUP4 SLOAD DIV MUL DUP4 MSTORE SWAP2 PUSH1 0x20 ADD SWAP2 PUSH2 0x5B5 JUMP JUMPDEST DUP3 ADD SWAP2 SWAP1 PUSH1 0x0 MSTORE PUSH1 0x20 PUSH1 0x0 KECCAK256 SWAP1 JUMPDEST DUP2 SLOAD DUP2 MSTORE SWAP1 PUSH1 0x1 ADD SWAP1 PUSH1 0x20 ADD DUP1 DUP4 GT PUSH2 0x598 JUMPI DUP3 SWAP1 SUB PUSH1 0x1F AND DUP3 ADD SWAP2 JUMPDEST POP POP POP POP POP DUP2 MSTORE PUSH1 0x20 ADD PUSH1 0x2 DUP3 ADD DUP1 SLOAD PUSH2 0x5CE SWAP1 PUSH2 0x109A JUMP JUMPDEST DUP1 PUSH1 0x1F ADD PUSH1 0x20 DUP1 SWAP2 DIV MUL PUSH1 0x20 ADD PUSH1 0x40 MLOAD SWAP1 DUP2 ADD PUSH1 0x40 MSTORE DUP1 SWAP3 SWAP2 SWAP1 DUP2 DUP2 MSTORE PUSH1 0x20 ADD DUP3 DUP1 SLOAD PUSH2 0x5FA SWAP1 PUSH2 0x109A JUMP JUMPDEST DUP1 ISZERO PUSH2 0x647 JUMPI DUP1 PUSH1 0x1F LT PUSH2 0x61C JUMPI PUSH2 0x100 DUP1 DUP4 SLOAD DIV MUL DUP4 MSTORE SWAP2 PUSH1 0x20 ADD SWAP2 PUSH2 0x647 JUMP JUMPDEST DUP3 ADD SWAP2 SWAP1 PUSH1 0x0 MSTORE PUSH1 0x20 PUSH1 0x0 KECCAK256 SWAP1 JUMPDEST DUP2 SLOAD DUP2 MSTORE SWAP1 PUSH1 0x1 ADD SWAP1 PUSH1 0x20 ADD DUP1 DUP4 GT PUSH2 0x62A JUMPI DUP3 SWAP1 SUB PUSH1 0x1F AND DUP3 ADD SWAP2 JUMPDEST POP POP POP POP POP DUP2 MSTORE PUSH1 0x20 ADD PUSH1 0x3 DUP3 ADD SLOAD DUP2 MSTORE PUSH1 0x20 ADD PUSH1 0x4 DUP3 ADD DUP1 SLOAD PUSH2 0x66A SWAP1 PUSH2 0x109A JUMP JUMPDEST DUP1 PUSH1 0x1F ADD PUSH1 0x20 DUP1 SWAP2 DIV MUL PUSH1 0x20 ADD PUSH1 0x40 MLOAD SWAP1 DUP2 ADD PUSH1 0x40 MSTORE DUP1 SWAP3 SWAP2 SWAP1 DUP2 DUP2 MSTORE PUSH1 0x20 ADD DUP3 DUP1 SLOAD PUSH2 0x696 SWAP1 PUSH2 0x109A JUMP JUMPDEST DUP1 ISZERO PUSH2 0x6E3 JUMPI DUP1 PUSH1 0x1F LT PUSH2 0x6B8 JUMPI PUSH2 0x100 DUP1 DUP4 SLOAD DIV MUL DUP4 MSTORE SWAP2 PUSH1 0x20 ADD SWAP2 PUSH2 0x6E3 JUMP JUMPDEST DUP3 ADD SWAP2 SWAP1 PUSH1 0x0 MSTORE PUSH1 0x20 PUSH1 0x0 KECCAK256 SWAP1 JUMPDEST DUP2 SLOAD DUP2 MSTORE SWAP1 PUSH1 0x1 ADD SWAP1 PUSH1 0x20 ADD DUP1 DUP4 GT PUSH2 0x6C6 JUMPI DUP3 SWAP1 SUB PUSH1 0x1F AND DUP3 ADD SWAP2 JUMPDEST POP POP POP POP POP DUP2 MSTORE POP POP SWAP1 POP SWAP2 SWAP1 POP JUMP JUMPDEST PUSH1 0x0 PUSH32 0x19457468657265756D205369676E6564204D6573736167653A0A333200000000 PUSH1 0x0 MSTORE DUP2 PUSH1 0x1C MSTORE PUSH1 0x3C PUSH1 0x0 KECCAK256 SWAP1 POP SWAP2 SWAP1 POP JUMP JUMPDEST PUSH1 0x0 DUP1 PUSH1 0x0 PUSH2 0x738 DUP6 DUP6 PUSH2 0x750 JUMP JUMPDEST SWAP2 POP SWAP2 POP PUSH2 0x745 DUP2 PUSH2 0x7A1 JUMP JUMPDEST DUP2 SWAP3 POP POP POP SWAP3 SWAP2 POP POP JUMP JUMPDEST PUSH1 0x0 DUP1 PUSH1 0x41 DUP4 MLOAD SUB PUSH2 0x791 JUMPI PUSH1 0x0 DUP1 PUSH1 0x0 PUSH1 0x20 DUP7 ADD MLOAD SWAP3 POP PUSH1 0x40 DUP7 ADD MLOAD SWAP2 POP PUSH1 0x60 DUP7 ADD MLOAD PUSH1 0x0 BYTE SWAP1 POP PUSH2 0x785 DUP8 DUP3 DUP6 DUP6 PUSH2 0x907 JUMP JUMPDEST SWAP5 POP SWAP5 POP POP POP POP PUSH2 0x79A JUMP JUMPDEST PUSH1 0x0 PUSH1 0x2 SWAP2 POP SWAP2 POP JUMPDEST SWAP3 POP SWAP3 SWAP1 POP JUMP JUMPDEST PUSH1 0x0 PUSH1 0x4 DUP2 GT ISZERO PUSH2 0x7B5 JUMPI PUSH2 0x7B4 PUSH2 0x15CD JUMP JUMPDEST JUMPDEST DUP2 PUSH1 0x4 DUP2 GT ISZERO PUSH2 0x7C8 JUMPI PUSH2 0x7C7 PUSH2 0x15CD JUMP JUMPDEST JUMPDEST SUB ISZERO PUSH2 0x904 JUMPI PUSH1 0x1 PUSH1 0x4 DUP2 GT ISZERO PUSH2 0x7E2 JUMPI PUSH2 0x7E1 PUSH2 0x15CD JUMP JUMPDEST JUMPDEST DUP2 PUSH1 0x4 DUP2 GT ISZERO PUSH2 0x7F5 JUMPI PUSH2 0x7F4 PUSH2 0x15CD JUMP JUMPDEST JUMPDEST SUB PUSH2 0x835 JUMPI PUSH1 0x40 MLOAD PUSH32 0x8C379A000000000000000000000000000000000000000000000000000000000 DUP2 MSTORE PUSH1 0x4 ADD PUSH2 0x82C SWAP1 PUSH2 0x1648 JUMP JUMPDEST PUSH1 0x40 MLOAD DUP1 SWAP2 SUB SWAP1 REVERT JUMPDEST PUSH1 0x2 PUSH1 0x4 DUP2 GT ISZERO PUSH2 0x849 JUMPI PUSH2 0x848 PUSH2 0x15CD JUMP JUMPDEST JUMPDEST DUP2 PUSH1 0x4 DUP2 GT ISZERO PUSH2 0x85C JUMPI PUSH2 0x85B PUSH2 0x15CD JUMP JUMPDEST JUMPDEST SUB PUSH2 0x89C JUMPI PUSH1 0x40 MLOAD PUSH32 0x8C379A000000000000000000000000000000000000000000000000000000000 DUP2 MSTORE PUSH1 0x4 ADD PUSH2 0x893 SWAP1 PUSH2 0x16B4 JUMP JUMPDEST PUSH1 0x40 MLOAD DUP1 SWAP2 SUB SWAP1 REVERT JUMPDEST PUSH1 0x3 PUSH1 0x4 DUP2 GT ISZERO PUSH2 0x8B0 JUMPI PUSH2 0x8AF PUSH2 0x15CD JUMP JUMPDEST JUMPDEST DUP2 PUSH1 0x4 DUP2 GT ISZERO PUSH2 0x8C3 JUMPI PUSH2 0x8C2 PUSH2 0x15CD JUMP JUMPDEST JUMPDEST SUB PUSH2 0x903 JUMPI PUSH1 0x40 MLOAD PUSH32 0x8C379A000000000000000000000000000000000000000000000000000000000 DUP2 MSTORE PUSH1 0x4 ADD PUSH2 0x8FA SWAP1 PUSH2 0x1746 JUMP JUMPDEST PUSH1 0x40 MLOAD DUP1 SWAP2 SUB SWAP1 REVERT JUMPDEST JUMPDEST POP JUMP JUMPDEST PUSH1 0x0 DUP1 PUSH32 0x7FFFFFFFFFFFFFFFFFFFFFFFFFFFFFFF5D576E7357A4501DDFE92F46681B20A0 DUP4 PUSH1 0x0 SHR GT ISZERO PUSH2 0x942 JUMPI PUSH1 0x0 PUSH1 0x3 SWAP2 POP SWAP2 POP PUSH2 0x9E0 JUMP JUMPDEST PUSH1 0x0 PUSH1 0x1 DUP8 DUP8 DUP8 DUP8 PUSH1 0x40 MLOAD PUSH1 0x0 DUP2 MSTORE PUSH1 0x20 ADD PUSH1 0x40 MSTORE PUSH1 0x40 MLOAD PUSH2 0x967 SWAP5 SWAP4 SWAP3 SWAP2 SWAP1 PUSH2 0x179B JUMP JUMPDEST PUSH1 0x20 PUSH1 0x40 MLOAD PUSH1 0x20 DUP2 SUB SWAP1 DUP1 DUP5 SUB SWAP1 DUP6 GAS STATICCALL ISZERO DUP1 ISZERO PUSH2 0x989 JUMPI RETURNDATASIZE PUSH1 0x0 DUP1 RETURNDATACOPY RETURNDATASIZE PUSH1 0x0 REVERT JUMPDEST POP POP POP PUSH1 0x20 PUSH1 0x40 MLOAD SUB MLOAD SWAP1 POP PUSH1 0x0 PUSH20 0xFFFFFFFFFFFFFFFFFFFFFFFFFFFFFFFFFFFFFFFF AND DUP2 PUSH20 0xFFFFFFFFFFFFFFFFFFFFFFFFFFFFFFFFFFFFFFFF AND SUB PUSH2 0x9D7 JUMPI PUSH1 0x0 PUSH1 0x1 SWAP3 POP SWAP3 POP POP PUSH2 0x9E0 JUMP JUMPDEST DUP1 PUSH1 0x0 SWAP3 POP SWAP3 POP POP JUMPDEST SWAP5 POP SWAP5 SWAP3 POP POP POP JUMP JUMPDEST PUSH1 0x40 MLOAD DUP1 PUSH1 0xA0 ADD PUSH1 0x40 MSTORE DUP1 PUSH1 0x0 PUSH20 0xFFFFFFFFFFFFFFFFFFFFFFFFFFFFFFFFFFFFFFFF AND DUP2 MSTORE PUSH1 0x20 ADD PUSH1 0x60 DUP2 MSTORE PUSH1 0x20 ADD PUSH1 0x60 DUP2 MSTORE PUSH1 0x20 ADD PUSH1 0x0 DUP2 MSTORE PUSH1 0x20 ADD PUSH1 0x60 DUP2 MSTORE POP SWAP1 JUMP JUMPDEST PUSH1 0x0 PUSH1 0x40 MLOAD SWAP1 POP SWAP1 JUMP JUMPDEST PUSH1 0x0 DUP1 REVERT JUMPDEST PUSH1 0x0 DUP1 REVERT JUMPDEST PUSH1 0x0 PUSH20 0xFFFFFFFFFFFFFFFFFFFFFFFFFFFFFFFFFFFFFFFF DUP3 AND SWAP1 POP SWAP2 SWAP1 POP JUMP JUMPDEST PUSH1 0x0 PUSH2 0xA6D DUP3 PUSH2 0xA42 JUMP JUMPDEST SWAP1 POP SWAP2 SWAP1 POP JUMP JUMPDEST PUSH2 0xA7D DUP2 PUSH2 0xA62 JUMP JUMPDEST DUP2 EQ PUSH2 0xA88 JUMPI PUSH1 0x0 DUP1 REVERT JUMPDEST POP JUMP JUMPDEST PUSH1 0x0 DUP2 CALLDATALOAD SWAP1 POP PUSH2 0xA9A DUP2 PUSH2 0xA74 JUMP JUMPDEST SWAP3 SWAP2 POP POP JUMP JUMPDEST PUSH1 0x0 PUSH1 0x20 DUP3 DUP5 SUB SLT ISZERO PUSH2 0xAB6 JUMPI PUSH2 0xAB5 PUSH2 0xA38 JUMP JUMPDEST JUMPDEST PUSH1 0x0 PUSH2 0xAC4 DUP5 DUP3 DUP6 ADD PUSH2 0xA8B JUMP JUMPDEST SWAP2 POP POP SWAP3 SWAP2 POP POP JUMP JUMPDEST PUSH2 0xAD6 DUP2 PUSH2 0xA62 JUMP JUMPDEST DUP3 MSTORE POP POP JUMP JUMPDEST PUSH1 0x0 DUP2 MLOAD SWAP1 POP SWAP2 SWAP1 POP JUMP JUMPDEST PUSH1 0x0 DUP3 DUP3 MSTORE PUSH1 0x20 DUP3 ADD SWAP1 POP SWAP3 SWAP2 POP POP JUMP JUMPDEST PUSH1 0x0 JUMPDEST DUP4 DUP2 LT ISZERO PUSH2 0xB16 JUMPI DUP1 DUP3 ADD MLOAD DUP2 DUP5 ADD MSTORE PUSH1 0x20 DUP2 ADD SWAP1 POP PUSH2 0xAFB JUMP JUMPDEST PUSH1 0x0 DUP5 DUP5 ADD MSTORE POP POP POP POP JUMP JUMPDEST PUSH1 0x0 PUSH1 0x1F NOT PUSH1 0x1F DUP4 ADD AND SWAP1 POP SWAP2 SWAP1 POP JUMP JUMPDEST PUSH1 0x0 PUSH2 0xB3E DUP3 PUSH2 0xADC JUMP JUMPDEST PUSH2 0xB48 DUP2 DUP6 PUSH2 0xAE7 JUMP JUMPDEST SWAP4 POP PUSH2 0xB58 DUP2 DUP6 PUSH1 0x20 DUP7 ADD PUSH2 0xAF8 JUMP JUMPDEST PUSH2 0xB61 DUP2 PUSH2 0xB22 JUMP JUMPDEST DUP5 ADD SWAP2 POP POP SWAP3 SWAP2 POP POP JUMP JUMPDEST PUSH1 0x0 DUP2 SWAP1 POP SWAP2 SWAP1 POP JUMP JUMPDEST PUSH2 0xB7F DUP2 PUSH2 0xB6C JUMP JUMPDEST DUP3 MSTORE POP POP JUMP JUMPDEST PUSH1 0x0 DUP2 MLOAD SWAP1 POP SWAP2 SWAP1 POP JUMP JUMPDEST PUSH1 0x0 DUP3 DUP3 MSTORE PUSH1 0x20 DUP3 ADD SWAP1 POP SWAP3 SWAP2 POP POP JUMP JUMPDEST PUSH1 0x0 PUSH2 0xBAC DUP3 PUSH2 0xB85 JUMP JUMPDEST PUSH2 0xBB6 DUP2 DUP6 PUSH2 0xB90 JUMP JUMPDEST SWAP4 POP PUSH2 0xBC6 DUP2 DUP6 PUSH1 0x20 DUP7 ADD PUSH2 0xAF8 JUMP JUMPDEST PUSH2 0xBCF DUP2 PUSH2 0xB22 JUMP JUMPDEST DUP5 ADD SWAP2 POP POP SWAP3 SWAP2 POP POP JUMP JUMPDEST PUSH1 0x0 PUSH1 0xA0 DUP3 ADD SWAP1 POP PUSH2 0xBEF PUSH1 0x0 DUP4 ADD DUP9 PUSH2 0xACD JUMP JUMPDEST DUP2 DUP2 SUB PUSH1 0x20 DUP4 ADD MSTORE PUSH2 0xC01 DUP2 DUP8 PUSH2 0xB33 JUMP JUMPDEST SWAP1 POP DUP2 DUP2 SUB PUSH1 0x40 DUP4 ADD MSTORE PUSH2 0xC15 DUP2 DUP7 PUSH2 0xB33 JUMP JUMPDEST SWAP1 POP PUSH2 0xC24 PUSH1 0x60 DUP4 ADD DUP6 PUSH2 0xB76 JUMP JUMPDEST DUP2 DUP2 SUB PUSH1 0x80 DUP4 ADD MSTORE PUSH2 0xC36 DUP2 DUP5 PUSH2 0xBA1 JUMP JUMPDEST SWAP1 POP SWAP7 SWAP6 POP POP POP POP POP POP JUMP JUMPDEST PUSH1 0x0 DUP1 REVERT JUMPDEST PUSH1 0x0 DUP1 REVERT JUMPDEST PUSH32 0x4E487B7100000000000000000000000000000000000000000000000000000000 PUSH1 0x0 MSTORE PUSH1 0x41 PUSH1 0x4 MSTORE PUSH1 0x24 PUSH1 0x0 REVERT JUMPDEST PUSH2 0xC84 DUP3 PUSH2 0xB22 JUMP JUMPDEST DUP2 ADD DUP2 DUP2 LT PUSH8 0xFFFFFFFFFFFFFFFF DUP3 GT OR ISZERO PUSH2 0xCA3 JUMPI PUSH2 0xCA2 PUSH2 0xC4C JUMP JUMPDEST JUMPDEST DUP1 PUSH1 0x40 MSTORE POP POP POP JUMP JUMPDEST PUSH1 0x0 PUSH2 0xCB6 PUSH2 0xA2E JUMP JUMPDEST SWAP1 POP PUSH2 0xCC2 DUP3 DUP3 PUSH2 0xC7B JUMP JUMPDEST SWAP2 SWAP1 POP JUMP JUMPDEST PUSH1 0x0 PUSH8 0xFFFFFFFFFFFFFFFF DUP3 GT ISZERO PUSH2 0xCE2 JUMPI PUSH2 0xCE1 PUSH2 0xC4C JUMP JUMPDEST JUMPDEST PUSH2 0xCEB DUP3 PUSH2 0xB22 JUMP JUMPDEST SWAP1 POP PUSH1 0x20 DUP2 ADD SWAP1 POP SWAP2 SWAP1 POP JUMP JUMPDEST DUP3 DUP2 DUP4 CALLDATACOPY PUSH1 0x0 DUP4 DUP4 ADD MSTORE POP POP POP JUMP JUMPDEST PUSH1 0x0 PUSH2 0xD1A PUSH2 0xD15 DUP5 PUSH2 0xCC7 JUMP JUMPDEST PUSH2 0xCAC JUMP JUMPDEST SWAP1 POP DUP3 DUP2 MSTORE PUSH1 0x20 DUP2 ADD DUP5 DUP5 DUP5 ADD GT ISZERO PUSH2 0xD36 JUMPI PUSH2 0xD35 PUSH2 0xC47 JUMP JUMPDEST JUMPDEST PUSH2 0xD41 DUP5 DUP3 DUP6 PUSH2 0xCF8 JUMP JUMPDEST POP SWAP4 SWAP3 POP POP POP JUMP JUMPDEST PUSH1 0x0 DUP3 PUSH1 0x1F DUP4 ADD SLT PUSH2 0xD5E JUMPI PUSH2 0xD5D PUSH2 0xC42 JUMP JUMPDEST JUMPDEST DUP2 CALLDATALOAD PUSH2 0xD6E DUP5 DUP3 PUSH1 0x20 DUP7 ADD PUSH2 0xD07 JUMP JUMPDEST SWAP2 POP POP SWAP3 SWAP2 POP POP JUMP JUMPDEST PUSH2 0xD80 DUP2 PUSH2 0xB6C JUMP JUMPDEST DUP2 EQ PUSH2 0xD8B JUMPI PUSH1 0x0 DUP1 REVERT JUMPDEST POP JUMP JUMPDEST PUSH1 0x0 DUP2 CALLDATALOAD SWAP1 POP PUSH2 0xD9D DUP2 PUSH2 0xD77 JUMP JUMPDEST SWAP3 SWAP2 POP POP JUMP JUMPDEST PUSH1 0x0 PUSH8 0xFFFFFFFFFFFFFFFF DUP3 GT ISZERO PUSH2 0xDBE JUMPI PUSH2 0xDBD PUSH2 0xC4C JUMP JUMPDEST JUMPDEST PUSH2 0xDC7 DUP3 PUSH2 0xB22 JUMP JUMPDEST SWAP1 POP PUSH1 0x20 DUP2 ADD SWAP1 POP SWAP2 SWAP1 POP JUMP JUMPDEST PUSH1 0x0 PUSH2 0xDE7 PUSH2 0xDE2 DUP5 PUSH2 0xDA3 JUMP JUMPDEST PUSH2 0xCAC JUMP JUMPDEST SWAP1 POP DUP3 DUP2 MSTORE PUSH1 0x20 DUP2 ADD DUP5 DUP5 DUP5 ADD GT ISZERO PUSH2 0xE03 JUMPI PUSH2 0xE02 PUSH2 0xC47 JUMP JUMPDEST JUMPDEST PUSH2 0xE0E DUP5 DUP3 DUP6 PUSH2 0xCF8 JUMP JUMPDEST POP SWAP4 SWAP3 POP POP POP JUMP JUMPDEST PUSH1 0x0 DUP3 PUSH1 0x1F DUP4 ADD SLT PUSH2 0xE2B JUMPI PUSH2 0xE2A PUSH2 0xC42 JUMP JUMPDEST JUMPDEST DUP2 CALLDATALOAD PUSH2 0xE3B DUP5 DUP3 PUSH1 0x20 DUP7 ADD PUSH2 0xDD4 JUMP JUMPDEST SWAP2 POP POP SWAP3 SWAP2 POP POP JUMP JUMPDEST PUSH1 0x0 DUP1 PUSH1 0x0 DUP1 PUSH1 0x0 PUSH1 0xA0 DUP7 DUP9 SUB SLT ISZERO PUSH2 0xE60 JUMPI PUSH2 0xE5F PUSH2 0xA38 JUMP JUMPDEST JUMPDEST PUSH1 0x0 PUSH2 0xE6E DUP9 DUP3 DUP10 ADD PUSH2 0xA8B JUMP JUMPDEST SWAP6 POP POP PUSH1 0x20 DUP7 ADD CALLDATALOAD PUSH8 0xFFFFFFFFFFFFFFFF DUP2 GT ISZERO PUSH2 0xE8F JUMPI PUSH2 0xE8E PUSH2 0xA3D JUMP JUMPDEST JUMPDEST PUSH2 0xE9B DUP9 DUP3 DUP10 ADD PUSH2 0xD49 JUMP JUMPDEST SWAP5 POP POP PUSH1 0x40 DUP7 ADD CALLDATALOAD PUSH8 0xFFFFFFFFFFFFFFFF DUP2 GT ISZERO PUSH2 0xEBC JUMPI PUSH2 0xEBB PUSH2 0xA3D JUMP JUMPDEST JUMPDEST PUSH2 0xEC8 DUP9 DUP3 DUP10 ADD PUSH2 0xD49 JUMP JUMPDEST SWAP4 POP POP PUSH1 0x60 PUSH2 0xED9 DUP9 DUP3 DUP10 ADD PUSH2 0xD8E JUMP JUMPDEST SWAP3 POP POP PUSH1 0x80 DUP7 ADD CALLDATALOAD PUSH8 0xFFFFFFFFFFFFFFFF DUP2 GT ISZERO PUSH2 0xEFA JUMPI PUSH2 0xEF9 PUSH2 0xA3D JUMP JUMPDEST JUMPDEST PUSH2 0xF06 DUP9 DUP3 DUP10 ADD PUSH2 0xE16 JUMP JUMPDEST SWAP2 POP POP SWAP3 SWAP6 POP SWAP3 SWAP6 SWAP1 SWAP4 POP JUMP JUMPDEST PUSH2 0xF1C DUP2 PUSH2 0xA62 JUMP JUMPDEST DUP3 MSTORE POP POP JUMP JUMPDEST PUSH1 0x0 DUP3 DUP3 MSTORE PUSH1 0x20 DUP3 ADD SWAP1 POP SWAP3 SWAP2 POP POP JUMP JUMPDEST PUSH1 0x0 PUSH2 0xF3E DUP3 PUSH2 0xADC JUMP JUMPDEST PUSH2 0xF48 DUP2 DUP6 PUSH2 0xF22 JUMP JUMPDEST SWAP4 POP PUSH2 0xF58 DUP2 DUP6 PUSH1 0x20 DUP7 ADD PUSH2 0xAF8 JUMP JUMPDEST PUSH2 0xF61 DUP2 PUSH2 0xB22 JUMP JUMPDEST DUP5 ADD SWAP2 POP POP SWAP3 SWAP2 POP POP JUMP JUMPDEST PUSH2 0xF75 DUP2 PUSH2 0xB6C JUMP JUMPDEST DUP3 MSTORE POP POP JUMP JUMPDEST PUSH1 0x0 DUP3 DUP3 MSTORE PUSH1 0x20 DUP3 ADD SWAP1 POP SWAP3 SWAP2 POP POP JUMP JUMPDEST PUSH1 0x0 PUSH2 0xF97 DUP3 PUSH2 0xB85 JUMP JUMPDEST PUSH2 0xFA1 DUP2 DUP6 PUSH2 0xF7B JUMP JUMPDEST SWAP4 POP PUSH2 0xFB1 DUP2 DUP6 PUSH1 0x20 DUP7 ADD PUSH2 0xAF8 JUMP JUMPDEST PUSH2 0xFBA DUP2 PUSH2 0xB22 JUMP JUMPDEST DUP5 ADD SWAP2 POP POP SWAP3 SWAP2 POP POP JUMP JUMPDEST PUSH1 0x0 PUSH1 0xA0 DUP4 ADD PUSH1 0x0 DUP4 ADD MLOAD PUSH2 0xFDD PUSH1 0x0 DUP7 ADD DUP3 PUSH2 0xF13 JUMP JUMPDEST POP PUSH1 0x20 DUP4 ADD MLOAD DUP5 DUP3 SUB PUSH1 0x20 DUP7 ADD MSTORE PUSH2 0xFF5 DUP3 DUP3 PUSH2 0xF33 JUMP JUMPDEST SWAP2 POP POP PUSH1 0x40 DUP4 ADD MLOAD DUP5 DUP3 SUB PUSH1 0x40 DUP7 ADD MSTORE PUSH2 0x100F DUP3 DUP3 PUSH2 0xF33 JUMP JUMPDEST SWAP2 POP POP PUSH1 0x60 DUP4 ADD MLOAD PUSH2 0x1024 PUSH1 0x60 DUP7 ADD DUP3 PUSH2 0xF6C JUMP JUMPDEST POP PUSH1 0x80 DUP4 ADD MLOAD DUP5 DUP3 SUB PUSH1 0x80 DUP7 ADD MSTORE PUSH2 0x103C DUP3 DUP3 PUSH2 0xF8C JUMP JUMPDEST SWAP2 POP POP DUP1 SWAP2 POP POP SWAP3 SWAP2 POP POP JUMP JUMPDEST PUSH1 0x0 PUSH1 0x20 DUP3 ADD SWAP1 POP DUP2 DUP2 SUB PUSH1 0x0 DUP4 ADD MSTORE PUSH2 0x1063 DUP2 DUP5 PUSH2 0xFC5 JUMP JUMPDEST SWAP1 POP SWAP3 SWAP2 POP POP JUMP JUMPDEST PUSH32 0x4E487B7100000000000000000000000000000000000000000000000000000000 PUSH1 0x0 MSTORE PUSH1 0x22 PUSH1 0x4 MSTORE PUSH1 0x24 PUSH1 0x0 REVERT JUMPDEST PUSH1 0x0 PUSH1 0x2 DUP3 DIV SWAP1 POP PUSH1 0x1 DUP3 AND DUP1 PUSH2 0x10B2 JUMPI PUSH1 0x7F DUP3 AND SWAP2 POP JUMPDEST PUSH1 0x20 DUP3 LT DUP2 SUB PUSH2 0x10C5 JUMPI PUSH2 0x10C4 PUSH2 0x106B JUMP JUMPDEST JUMPDEST POP SWAP2 SWAP1 POP JUMP JUMPDEST PUSH1 0x0 DUP2 PUSH1 0x60 SHL SWAP1 POP SWAP2 SWAP1 POP JUMP JUMPDEST PUSH1 0x0 PUSH2 0x10E3 DUP3 PUSH2 0x10CB JUMP JUMPDEST SWAP1 POP SWAP2 SWAP1 POP JUMP JUMPDEST PUSH1 0x0 PUSH2 0x10F5 DUP3 PUSH2 0x10D8 JUMP JUMPDEST SWAP1 POP SWAP2 SWAP1 POP JUMP JUMPDEST PUSH2 0x110D PUSH2 0x1108 DUP3 PUSH2 0xA62 JUMP JUMPDEST PUSH2 0x10EA JUMP JUMPDEST DUP3 MSTORE POP POP JUMP JUMPDEST PUSH1 0x0 DUP2 SWAP1 POP SWAP3 SWAP2 POP POP JUMP JUMPDEST PUSH1 0x0 PUSH2 0x1129 DUP3 PUSH2 0xADC JUMP JUMPDEST PUSH2 0x1133 DUP2 DUP6 PUSH2 0x1113 JUMP JUMPDEST SWAP4 POP PUSH2 0x1143 DUP2 DUP6 PUSH1 0x20 DUP7 ADD PUSH2 0xAF8 JUMP JUMPDEST DUP1 DUP5 ADD SWAP2 POP POP SWAP3 SWAP2 POP POP JUMP JUMPDEST PUSH1 0x0 DUP2 SWAP1 POP SWAP2 SWAP1 POP JUMP JUMPDEST PUSH2 0x116A PUSH2 0x1165 DUP3 PUSH2 0xB6C JUMP JUMPDEST PUSH2 0x114F JUMP JUMPDEST DUP3 MSTORE POP POP JUMP JUMPDEST PUSH1 0x0 PUSH2 0x117C DUP3 DUP8 PUSH2 0x10FC JUMP JUMPDEST PUSH1 0x14 DUP3 ADD SWAP2 POP PUSH2 0x118C DUP3 DUP7 PUSH2 0x111E JUMP JUMPDEST SWAP2 POP PUSH2 0x1198 DUP3 DUP6 PUSH2 0x111E JUMP JUMPDEST SWAP2 POP PUSH2 0x11A4 DUP3 DUP5 PUSH2 0x1159 JUMP JUMPDEST PUSH1 0x20 DUP3 ADD SWAP2 POP DUP2 SWAP1 POP SWAP6 SWAP5 POP POP POP POP POP JUMP JUMPDEST PUSH32 0x496E76616C6964207369676E6174757265000000000000000000000000000000 PUSH1 0x0 DUP3 ADD MSTORE POP JUMP JUMPDEST PUSH1 0x0 PUSH2 0x11EC PUSH1 0x11 DUP4 PUSH2 0xAE7 JUMP JUMPDEST SWAP2 POP PUSH2 0x11F7 DUP3 PUSH2 0x11B6 JUMP JUMPDEST PUSH1 0x20 DUP3 ADD SWAP1 POP SWAP2 SWAP1 POP JUMP JUMPDEST PUSH1 0x0 PUSH1 0x20 DUP3 ADD SWAP1 POP DUP2 DUP2 SUB PUSH1 0x0 DUP4 ADD MSTORE PUSH2 0x121B DUP2 PUSH2 0x11DF JUMP JUMPDEST SWAP1 POP SWAP2 SWAP1 POP JUMP JUMPDEST PUSH1 0x0 DUP2 SWAP1 POP DUP2 PUSH1 0x0 MSTORE PUSH1 0x20 PUSH1 0x0 KECCAK256 SWAP1 POP SWAP2 SWAP1 POP JUMP JUMPDEST PUSH1 0x0 PUSH1 0x20 PUSH1 0x1F DUP4 ADD DIV SWAP1 POP SWAP2 SWAP1 POP JUMP JUMPDEST PUSH1 0x0 DUP3 DUP3 SHL SWAP1 POP SWAP3 SWAP2 POP POP JUMP JUMPDEST PUSH1 0x0 PUSH1 0x8 DUP4 MUL PUSH2 0x1284 PUSH32 0xFFFFFFFFFFFFFFFFFFFFFFFFFFFFFFFFFFFFFFFFFFFFFFFFFFFFFFFFFFFFFFFF DUP3 PUSH2 0x1247 JUMP JUMPDEST PUSH2 0x128E DUP7 DUP4 PUSH2 0x1247 JUMP JUMPDEST SWAP6 POP DUP1 NOT DUP5 AND SWAP4 POP DUP1 DUP7 AND DUP5 OR SWAP3 POP POP POP SWAP4 SWAP3 POP POP POP JUMP JUMPDEST PUSH1 0x0 DUP2 SWAP1 POP SWAP2 SWAP1 POP JUMP JUMPDEST PUSH1 0x0 PUSH2 0x12CB PUSH2 0x12C6 PUSH2 0x12C1 DUP5 PUSH2 0xB6C JUMP JUMPDEST PUSH2 0x12A6 JUMP JUMPDEST PUSH2 0xB6C JUMP JUMPDEST SWAP1 POP SWAP2 SWAP1 POP JUMP JUMPDEST PUSH1 0x0 DUP2 SWAP1 POP SWAP2 SWAP1 POP JUMP JUMPDEST PUSH2 0x12E5 DUP4 PUSH2 0x12B0 JUMP JUMPDEST PUSH2 0x12F9 PUSH2 0x12F1 DUP3 PUSH2 0x12D2 JUMP JUMPDEST DUP5 DUP5 SLOAD PUSH2 0x1254 JUMP JUMPDEST DUP3 SSTORE POP POP POP POP JUMP JUMPDEST PUSH1 0x0 SWAP1 JUMP JUMPDEST PUSH2 0x130E PUSH2 0x1301 JUMP JUMPDEST PUSH2 0x1319 DUP2 DUP5 DUP5 PUSH2 0x12DC JUMP JUMPDEST POP POP POP JUMP JUMPDEST JUMPDEST DUP2 DUP2 LT ISZERO PUSH2 0x133D JUMPI PUSH2 0x1332 PUSH1 0x0 DUP3 PUSH2 0x1306 JUMP JUMPDEST PUSH1 0x1 DUP2 ADD SWAP1 POP PUSH2 0x131F JUMP JUMPDEST POP POP JUMP JUMPDEST PUSH1 0x1F DUP3 GT ISZERO PUSH2 0x1382 JUMPI PUSH2 0x1353 DUP2 PUSH2 0x1222 JUMP JUMPDEST PUSH2 0x135C DUP5 PUSH2 0x1237 JUMP JUMPDEST DUP2 ADD PUSH1 0x20 DUP6 LT ISZERO PUSH2 0x136B JUMPI DUP2 SWAP1 POP JUMPDEST PUSH2 0x137F PUSH2 0x1377 DUP6 PUSH2 0x1237 JUMP JUMPDEST DUP4 ADD DUP3 PUSH2 0x131E JUMP JUMPDEST POP POP JUMPDEST POP POP POP JUMP JUMPDEST PUSH1 0x0 DUP3 DUP3 SHR SWAP1 POP SWAP3 SWAP2 POP POP JUMP JUMPDEST PUSH1 0x0 PUSH2 0x13A5 PUSH1 0x0 NOT DUP5 PUSH1 0x8 MUL PUSH2 0x1387 JUMP JUMPDEST NOT DUP1 DUP4 AND SWAP2 POP POP SWAP3 SWAP2 POP POP JUMP JUMPDEST PUSH1 0x0 PUSH2 0x13BE DUP4 DUP4 PUSH2 0x1394 JUMP JUMPDEST SWAP2 POP DUP3 PUSH1 0x2 MUL DUP3 OR SWAP1 POP SWAP3 SWAP2 POP POP JUMP JUMPDEST PUSH2 0x13D7 DUP3 PUSH2 0xADC JUMP JUMPDEST PUSH8 0xFFFFFFFFFFFFFFFF DUP2 GT ISZERO PUSH2 0x13F0 JUMPI PUSH2 0x13EF PUSH2 0xC4C JUMP JUMPDEST JUMPDEST PUSH2 0x13FA DUP3 SLOAD PUSH2 0x109A JUMP JUMPDEST PUSH2 0x1405 DUP3 DUP3 DUP6 PUSH2 0x1341 JUMP JUMPDEST PUSH1 0x0 PUSH1 0x20 SWAP1 POP PUSH1 0x1F DUP4 GT PUSH1 0x1 DUP2 EQ PUSH2 0x1438 JUMPI PUSH1 0x0 DUP5 ISZERO PUSH2 0x1426 JUMPI DUP3 DUP8 ADD MLOAD SWAP1 POP JUMPDEST PUSH2 0x1430 DUP6 DUP3 PUSH2 0x13B2 JUMP JUMPDEST DUP7 SSTORE POP PUSH2 0x1498 JUMP JUMPDEST PUSH1 0x1F NOT DUP5 AND PUSH2 0x1446 DUP7 PUSH2 0x1222 JUMP JUMPDEST PUSH1 0x0 JUMPDEST DUP3 DUP2 LT ISZERO PUSH2 0x146E JUMPI DUP5 DUP10 ADD MLOAD DUP3 SSTORE PUSH1 0x1 DUP3 ADD SWAP2 POP PUSH1 0x20 DUP6 ADD SWAP5 POP PUSH1 0x20 DUP2 ADD SWAP1 POP PUSH2 0x1449 JUMP JUMPDEST DUP7 DUP4 LT ISZERO PUSH2 0x148B JUMPI DUP5 DUP10 ADD MLOAD PUSH2 0x1487 PUSH1 0x1F DUP10 AND DUP3 PUSH2 0x1394 JUMP JUMPDEST DUP4 SSTORE POP JUMPDEST PUSH1 0x1 PUSH1 0x2 DUP9 MUL ADD DUP9 SSTORE POP POP POP JUMPDEST POP POP POP POP POP POP JUMP JUMPDEST PUSH1 0x0 DUP2 SWAP1 POP DUP2 PUSH1 0x0 MSTORE PUSH1 0x20 PUSH1 0x0 KECCAK256 SWAP1 POP SWAP2 SWAP1 POP JUMP JUMPDEST PUSH1 0x1F DUP3 GT ISZERO PUSH2 0x14F6 JUMPI PUSH2 0x14C7 DUP2 PUSH2 0x14A0 JUMP JUMPDEST PUSH2 0x14D0 DUP5 PUSH2 0x1237 JUMP JUMPDEST DUP2 ADD PUSH1 0x20 DUP6 LT ISZERO PUSH2 0x14DF JUMPI DUP2 SWAP1 POP JUMPDEST PUSH2 0x14F3 PUSH2 0x14EB DUP6 PUSH2 0x1237 JUMP JUMPDEST DUP4 ADD DUP3 PUSH2 0x131E JUMP JUMPDEST POP POP JUMPDEST POP POP POP JUMP JUMPDEST PUSH2 0x1504 DUP3 PUSH2 0xB85 JUMP JUMPDEST PUSH8 0xFFFFFFFFFFFFFFFF DUP2 GT ISZERO PUSH2 0x151D JUMPI PUSH2 0x151C PUSH2 0xC4C JUMP JUMPDEST JUMPDEST PUSH2 0x1527 DUP3 SLOAD PUSH2 0x109A JUMP JUMPDEST PUSH2 0x1532 DUP3 DUP3 DUP6 PUSH2 0x14B5 JUMP JUMPDEST PUSH1 0x0 PUSH1 0x20 SWAP1 POP PUSH1 0x1F DUP4 GT PUSH1 0x1 DUP2 EQ PUSH2 0x1565 JUMPI PUSH1 0x0 DUP5 ISZERO PUSH2 0x1553 JUMPI DUP3 DUP8 ADD MLOAD SWAP1 POP JUMPDEST PUSH2 0x155D DUP6 DUP3 PUSH2 0x13B2 JUMP JUMPDEST DUP7 SSTORE POP PUSH2 0x15C5 JUMP JUMPDEST PUSH1 0x1F NOT DUP5 AND PUSH2 0x1573 DUP7 PUSH2 0x14A0 JUMP JUMPDEST PUSH1 0x0 JUMPDEST DUP3 DUP2 LT ISZERO PUSH2 0x159B JUMPI DUP5 DUP10 ADD MLOAD DUP3 SSTORE PUSH1 0x1 DUP3 ADD SWAP2 POP PUSH1 0x20 DUP6 ADD SWAP5 POP PUSH1 0x20 DUP2 ADD SWAP1 POP PUSH2 0x1576 JUMP JUMPDEST DUP7 DUP4 LT ISZERO PUSH2 0x15B8 JUMPI DUP5 DUP10 ADD MLOAD PUSH2 0x15B4 PUSH1 0x1F DUP10 AND DUP3 PUSH2 0x1394 JUMP JUMPDEST DUP4 SSTORE POP JUMPDEST PUSH1 0x1 PUSH1 0x2 DUP9 MUL ADD DUP9 SSTORE POP POP POP JUMPDEST POP POP POP POP POP POP JUMP JUMPDEST PUSH32 0x4E487B7100000000000000000000000000000000000000000000000000000000 PUSH1 0x0 MSTORE PUSH1 0x21 PUSH1 0x4 MSTORE PUSH1 0x24 PUSH1 0x0 REVERT JUMPDEST PUSH32 0x45434453413A20696E76616C6964207369676E61747572650000000000000000 PUSH1 0x0 DUP3 ADD MSTORE POP JUMP JUMPDEST PUSH1 0x0 PUSH2 0x1632 PUSH1 0x18 DUP4 PUSH2 0xAE7 JUMP JUMPDEST SWAP2 POP PUSH2 0x163D DUP3 PUSH2 0x15FC JUMP JUMPDEST PUSH1 0x20 DUP3 ADD SWAP1 POP SWAP2 SWAP1 POP JUMP JUMPDEST PUSH1 0x0 PUSH1 0x20 DUP3 ADD SWAP1 POP DUP2 DUP2 SUB PUSH1 0x0 DUP4 ADD MSTORE PUSH2 0x1661 DUP2 PUSH2 0x1625 JUMP JUMPDEST SWAP1 POP SWAP2 SWAP1 POP JUMP JUMPDEST PUSH32 0x45434453413A20696E76616C6964207369676E6174757265206C656E67746800 PUSH1 0x0 DUP3 ADD MSTORE POP JUMP JUMPDEST PUSH1 0x0 PUSH2 0x169E PUSH1 0x1F DUP4 PUSH2 0xAE7 JUMP JUMPDEST SWAP2 POP PUSH2 0x16A9 DUP3 PUSH2 0x1668 JUMP JUMPDEST PUSH1 0x20 DUP3 ADD SWAP1 POP SWAP2 SWAP1 POP JUMP JUMPDEST PUSH1 0x0 PUSH1 0x20 DUP3 ADD SWAP1 POP DUP2 DUP2 SUB PUSH1 0x0 DUP4 ADD MSTORE PUSH2 0x16CD DUP2 PUSH2 0x1691 JUMP JUMPDEST SWAP1 POP SWAP2 SWAP1 POP JUMP JUMPDEST PUSH32 0x45434453413A20696E76616C6964207369676E6174757265202773272076616C PUSH1 0x0 DUP3 ADD MSTORE PUSH32 0x7565000000000000000000000000000000000000000000000000000000000000 PUSH1 0x20 DUP3 ADD MSTORE POP JUMP JUMPDEST PUSH1 0x0 PUSH2 0x1730 PUSH1 0x22 DUP4 PUSH2 0xAE7 JUMP JUMPDEST SWAP2 POP PUSH2 0x173B DUP3 PUSH2 0x16D4 JUMP JUMPDEST PUSH1 0x40 DUP3 ADD SWAP1 POP SWAP2 SWAP1 POP JUMP JUMPDEST PUSH1 0x0 PUSH1 0x20 DUP3 ADD SWAP1 POP DUP2 DUP2 SUB PUSH1 0x0 DUP4 ADD MSTORE PUSH2 0x175F DUP2 PUSH2 0x1723 JUMP JUMPDEST SWAP1 POP SWAP2 SWAP1 POP JUMP JUMPDEST PUSH1 0x0 DUP2 SWAP1 POP SWAP2 SWAP1 POP JUMP JUMPDEST PUSH2 0x1779 DUP2 PUSH2 0x1766 JUMP JUMPDEST DUP3 MSTORE POP POP JUMP JUMPDEST PUSH1 0x0 PUSH1 0xFF DUP3 AND SWAP1 POP SWAP2 SWAP1 POP JUMP JUMPDEST PUSH2 0x1795 DUP2 PUSH2 0x177F JUMP JUMPDEST DUP3 MSTORE POP POP JUMP JUMPDEST PUSH1 0x0 PUSH1 0x80 DUP3 ADD SWAP1 POP PUSH2 0x17B0 PUSH1 0x0 DUP4 ADD DUP8 PUSH2 0x1770 JUMP JUMPDEST PUSH2 0x17BD PUSH1 0x20 DUP4 ADD DUP7 PUSH2 0x178C JUMP JUMPDEST PUSH2 0x17CA PUSH1 0x40 DUP4 ADD DUP6 PUSH2 0x1770 JUMP JUMPDEST PUSH2 0x17D7 PUSH1 0x60 DUP4 ADD DUP5 PUSH2 0x1770 JUMP JUMPDEST SWAP6 SWAP5 POP POP POP POP POP JUMP INVALID LOG2 PUSH5 0x6970667358 0x22 SLT KECCAK256 JUMPI PUSH14 0x2E6C16DA7162715D2BE24DF6D05C SIGNEXTEND 0x2F 0x4A PUSH8 0x8A92E1A4B2E6BE79 STOP STOP PUSH17 0x9164736F6C634300081300330000000000 "},"methodIdentifiers":{"certificates(address)":"0016e526","getCertificate(address)":"fd531e93","issueCertificate(address,string,string,uint256,bytes)":"ead33704"}}}}}