{
    "contractName": "CertificateNFT",
    "abi": [
        {
            "inputs": [
                {
                    "internalType": "string",
                    "name": "name",
                    "type": "string"
                },
                {
                    "internalType": "string",
                    "name": "symbol",
                    "type": "string"
                },
                {
                    "internalType": "address",
                    "name": "_verifier",
                    "type": "address"
                }
            ],
            "stateMutability": "nonpayable",
            "type": "constructor"
        },
        {
            "anonymous": false,
            "inputs": [
                {
                    "indexed": true,
                    "internalType": "address",
                    "name": "owner",
                    "type": "address"
                },
                {
                    "indexed": true,
                    "internalType": "address",
                    "name": "approved",
                    "type": "address"
                },
                {
                    "indexed": true,
                    "internalType": "uint256",
                    "name": "tokenId",
                    "type": "uint256"
                }
            ],
            "name": "Approval",
            "type": "event"
        },
        {
            "anonymous": false,
            "inputs": [
                {
                    "indexed": true,
                    "internalType": "address",
                    "name": "owner",
                    "type": "address"
                },
                {
                    "indexed": true,
                    "internalType": "address",
                    "name": "operator",
                    "type": "address"
                },
                {
                    "indexed": false,
                    "internalType": "bool",
                    "name": "approved",
                    "type": "bool"
                }
            ],
            "name": "ApprovalForAll",
            "type": "event"
        },
        {
            "anonymous": false,
            "inputs": [
                {
                    "indexed": true,
                    "internalType": "uint256",
                    "name": "tokenId",
                    "type": "uint256"
                },
                {
                    "indexed": false,
                    "internalType": "string",
                    "name": "metadata",
                    "type": "string"
                }
            ],
            "name": "CertificateIssued",
            "type": "event"
        },
        {
            "anonymous": false,
            "inputs": [
                {
                    "indexed": true,
                    "internalType": "address",
                    "name": "previousOwner",
                    "type": "address"
                },
                {
                    "indexed": true,
                    "internalType": "address",
                    "name": "newOwner",
                    "type": "address"
                }
            ],
            "name": "OwnershipTransferred",
            "type": "event"
        },
        {
            "anonymous": false,
            "inputs": [
                {
                    "indexed": true,
                    "internalType": "address",
                    "name": "from",
                    "type": "address"
                },
                {
                    "indexed": true,
                    "internalType": "address",
                    "name": "to",
                    "type": "address"
                },
                {
                    "indexed": true,
                    "internalType": "uint256",
                    "name": "tokenId",
                    "type": "uint256"
                }
            ],
            "name": "Transfer",
            "type": "event"
        },
        {
            "inputs": [
                {
                    "internalType": "address",
                    "name": "to",
                    "type": "address"
                },
                {
                    "internalType": "uint256",
                    "name": "tokenId",
                    "type": "uint256"
                }
            ],
            "name": "approve",
            "outputs": [],
            "stateMutability": "nonpayable",
            "type": "function"
        },
        {
            "inputs": [
                {
                    "internalType": "address",
                    "name": "owner",
                    "type": "address"
                }
            ],
            "name": "balanceOf",
            "outputs": [
                {
                    "internalType": "uint256",
                    "name": "",
                    "type": "uint256"
                }
            ],
            "stateMutability": "view",
            "type": "function"
        },
        {
            "inputs": [],
            "name": "certificateVerifier",
            "outputs": [
                {
                    "internalType": "address",
                    "name": "",
                    "type": "address"
                }
            ],
            "stateMutability": "view",
            "type": "function"
        },
        {
            "inputs": [
                {
                    "internalType": "uint256",
                    "name": "tokenId",
                    "type": "uint256"
                }
            ],
            "name": "getApproved",
            "outputs": [
                {
                    "internalType": "address",
                    "name": "",
                    "type": "address"
                }
            ],
            "stateMutability": "view",
            "type": "function"
        },
        {
            "inputs": [
                {
                    "internalType": "uint256",
                    "name": "tokenId",
                    "type": "uint256"
                }
            ],
            "name": "getCertificateMetadata",
            "outputs": [
                {
                    "internalType": "string",
                    "name": "",
                    "type": "string"
                }
            ],
            "stateMutability": "view",
            "type": "function"
        },
        {
            "inputs": [
                {
                    "internalType": "address",
                    "name": "owner",
                    "type": "address"
                },
                {
                    "internalType": "address",
                    "name": "operator",
                    "type": "address"
                }
            ],
            "name": "isApprovedForAll",
            "outputs": [
                {
                    "internalType": "bool",
                    "name": "",
                    "type": "bool"
                }
            ],
            "stateMutability": "view",
            "type": "function"
        },
        {
            "inputs": [
                {
                    "internalType": "address",
                    "name": "recipient",
                    "type": "address"
                },
                {
                    "internalType": "string",
                    "name": "metadata",
                    "type": "string"
                }
            ],
            "name": "issueCertificate",
            "outputs": [],
            "stateMutability": "nonpayable",
            "type": "function"
        },
        {
            "inputs": [],
            "name": "name",
            "outputs": [
                {
                    "internalType": "string",
                    "name": "",
                    "type": "string"
                }
            ],
            "stateMutability": "view",
            "type": "function"
        },
        {
            "inputs": [],
            "name": "owner",
            "outputs": [
                {
                    "internalType": "address",
                    "name": "",
                    "type": "address"
                }
            ],
            "stateMutability": "view",
            "type": "function"
        },
        {
            "inputs": [
                {
                    "internalType": "uint256",
                    "name": "tokenId",
                    "type": "uint256"
                }
            ],
            "name": "ownerOf",
            "outputs": [
                {
                    "internalType": "address",
                    "name": "",
                    "type": "address"
                }
            ],
            "stateMutability": "view",
            "type": "function"
        },
        {
            "inputs": [
                {
                    "internalType": "uint256",
                    "name": "tokenId",
                    "type": "uint256"
                }
            ],
            "name": "recipientOf",
            "outputs": [
                {
                    "internalType": "address",
                    "name": "",
                    "type": "address"
                }
            ],
            "stateMutability": "view",
            "type": "function"
        },
        {
            "inputs": [],
            "name": "renounceOwnership",
            "outputs": [],
            "stateMutability": "nonpayable",
            "type": "function"
        },
        {
            "inputs": [
                {
                    "internalType": "address",
                    "name": "from",
                    "type": "address"
                },
                {
                    "internalType": "address",
                    "name": "to",
                    "type": "address"
                },
                {
                    "internalType": "uint256",
                    "name": "tokenId",
                    "type": "uint256"
                }
            ],
            "name": "safeTransferFrom",
            "outputs": [],
            "stateMutability": "nonpayable",
            "type": "function"
        },
        {
            "inputs": [
                {
                    "internalType": "address",
                    "name": "from",
                    "type": "address"
                },
                {
                    "internalType": "address",
                    "name": "to",
                    "type": "address"
                },
                {
                    "internalType": "uint256",
                    "name": "tokenId",
                    "type": "uint256"
                },
                {
                    "internalType": "bytes",
                    "name": "data",
                    "type": "bytes"
                }
            ],
            "name": "safeTransferFrom",
            "outputs": [],
            "stateMutability": "nonpayable",
            "type": "function"
        },
        {
            "inputs": [
                {
                    "internalType": "address",
                    "name": "operator",
                    "type": "address"
                },
                {
                    "internalType": "bool",
                    "name": "approved",
                    "type": "bool"
                }
            ],
            "name": "setApprovalForAll",
            "outputs": [],
            "stateMutability": "nonpayable",
            "type": "function"
        },
        {
            "inputs": [
                {
                    "internalType": "address",
                    "name": "_verifier",
                    "type": "address"
                }
            ],
            "name": "setVerifier",
            "outputs": [],
            "stateMutability": "nonpayable",
            "type": "function"
        },
        {
            "inputs": [
                {
                    "internalType": "bytes4",
                    "name": "interfaceId",
                    "type": "bytes4"
                }
            ],
            "name": "supportsInterface",
            "outputs": [
                {
                    "internalType": "bool",
                    "name": "",
                    "type": "bool"
                }
            ],
            "stateMutability": "view",
            "type": "function"
        },
        {
            "inputs": [],
            "name": "symbol",
            "outputs": [
                {
                    "internalType": "string",
                    "name": "",
                    "type": "string"
                }
            ],
            "stateMutability": "view",
            "type": "function"
        },
        {
            "inputs": [
                {
                    "internalType": "uint256",
                    "name": "index",
                    "type": "uint256"
                }
            ],
            "name": "tokenByIndex",
            "outputs": [
                {
                    "internalType": "uint256",
                    "name": "",
                    "type": "uint256"
                }
            ],
            "stateMutability": "view",
            "type": "function"
        },
        {
            "inputs": [
                {
                    "internalType": "address",
                    "name": "owner",
                    "type": "address"
                },
                {
                    "internalType": "uint256",
                    "name": "index",
                    "type": "uint256"
                }
            ],
            "name": "tokenOfOwnerByIndex",
            "outputs": [
                {
                    "internalType": "uint256",
                    "name": "",
                    "type": "uint256"
                }
            ],
            "stateMutability": "view",
            "type": "function"
        },
        {
            "inputs": [
                {
                    "internalType": "uint256",
                    "name": "tokenId",
                    "type": "uint256"
                }
            ],
            "name": "tokenURI",
            "outputs": [
                {
                    "internalType": "string",
                    "name": "",
                    "type": "string"
                }
            ],
            "stateMutability": "view",
            "type": "function"
        },
        {
            "inputs": [],
            "name": "totalSupply",
            "outputs": [
                {
                    "internalType": "uint256",
                    "name": "",
                    "type": "uint256"
                }
            ],
            "stateMutability": "view",
            "type": "function"
        },
        {
            "inputs": [
                {
                    "internalType": "address",
                    "name": "from",
                    "type": "address"
                },
                {
                    "internalType": "address",
                    "name": "to",
                    "type": "address"
                },
                {
                    "internalType": "uint256",
                    "name": "tokenId",
                    "type": "uint256"
                }
            ],
            "name": "transferFrom",
            "outputs": [],
            "stateMutability": "nonpayable",
            "type": "function"
        },
        {
            "inputs": [
                {
                    "internalType": "address",
                    "name": "newOwner",
                    "type": "address"
                }
            ],
            "name": "transferOwnership",
            "outputs": [],
            "stateMutability": "nonpayable",
            "type": "function"
        },
        {
            "inputs": [
                {
                    "internalType": "uint256",
                    "name": "tokenId",
                    "type": "uint256"
                },
                {
                    "internalType": "bytes",
                    "name": "issuerSignature",
                    "type": "bytes"
                }
            ],
            "name": "verifyCertificate",
            "outputs": [
                {
                    "internalType": "bool",
                    "name": "",
                    "type": "bool"
                }
            ],
            "stateMutability": "view",
            "type": "function"
        }
    ],
    "bytecode": "60806040523480156200001157600080fd5b5060405162002576380380620025768339810160408190526200003491620001b4565b82826000620000448382620002d0565b506001620000538282620002d0565b505050620000706200006a6200009960201b60201c565b6200009d565b600c80546001600160a01b0319166001600160a01b0392909216919091179055506200039c9050565b3390565b600a80546001600160a01b038381166001600160a01b0319831681179093556040519116919082907f8be0079c531659141344cd1fd0a4f28419497f9722a3daafe3b4186f6b6457e090600090a35050565b634e487b7160e01b600052604160045260246000fd5b600082601f8301126200011757600080fd5b81516001600160401b0380821115620001345762000134620000ef565b604051601f8301601f19908116603f011681019082821181831017156200015f576200015f620000ef565b816040528381526020925086838588010111156200017c57600080fd5b600091505b83821015620001a0578582018301518183018401529082019062000181565b600093810190920192909252949350505050565b600080600060608486031215620001ca57600080fd5b83516001600160401b0380821115620001e257600080fd5b620001f08783880162000105565b945060208601519150808211156200020757600080fd5b50620002168682870162000105565b604086015190935090506001600160a01b03811681146200023657600080fd5b809150509250925092565b600181811c908216806200025657607f821691505b6020821081036200027757634e487b7160e01b600052602260045260246000fd5b50919050565b601f821115620002cb57600081815260208120601f850160051c81016020861015620002a65750805b601f850160051c820191505b81811015620002c757828155600101620002b2565b5050505b505050565b81516001600160401b03811115620002ec57620002ec620000ef565b6200030481620002fd845462000241565b846200027d565b602080601f8311600181146200033c5760008415620003235750858301515b600019600386901b1c1916600185901b178555620002c7565b600085815260208120601f198616915b828110156200036d578886015182559484019460019091019084016200034c565b50858210156200038c5787850151600019600388901b60f8161c191681555b5050505050600190811b01905550565b6121ca80620003ac6000396000f3fe608060405234801561001057600080fd5b50600436106101735760003560e01c8063715018a6116100de578063b88d4fde11610097578063dfd93d3b11610071578063dfd93d3b1461031f578063e985e9c514610332578063f14cf0451461036e578063f2fde38b1461038157600080fd5b8063b88d4fde146102e6578063bb721aab146102f9578063c87b56dd1461030c57600080fd5b8063715018a61461028c5780638da5cb5b1461029457806395d89b41146102a557806397cd8c1c146102ad578063a22cb465146102c0578063b34de123146102d357600080fd5b80632f745c59116101305780632f745c591461021a57806342842e0e1461022d5780634f6ccce7146102405780635437988d146102535780636352211e1461026657806370a082311461027957600080fd5b806301ffc9a71461017857806306fdde03146101a0578063081812fc146101b5578063095ea7b3146101e057806318160ddd146101f557806323b872dd14610207575b600080fd5b61018b610186366004611a07565b610394565b60405190151581526020015b60405180910390f35b6101a86103bf565b6040516101979190611a74565b6101c86101c3366004611a87565b610451565b6040516001600160a01b039091168152602001610197565b6101f36101ee366004611abc565b610478565b005b6008545b604051908152602001610197565b6101f3610215366004611ae6565b610592565b6101f9610228366004611abc565b6105c3565b6101f361023b366004611ae6565b610659565b6101f961024e366004611a87565b610674565b6101f3610261366004611b22565b610707565b6101c8610274366004611a87565b610731565b6101f9610287366004611b22565b610791565b6101f3610817565b600a546001600160a01b03166101c8565b6101a861082b565b6101a86102bb366004611a87565b61083a565b6101f36102ce366004611b3d565b6108ff565b61018b6102e1366004611b79565b61090e565b6101f36102f4366004611c81565b610a32565b6101f3610307366004611cfd565b610a6a565b6101a861031a366004611a87565b610aea565b600c546101c8906001600160a01b031681565b61018b610340366004611d5f565b6001600160a01b03918216600090815260056020908152604080832093909416825291909152205460ff1690565b6101c861037c366004611a87565b610b5e565b6101f361038f366004611b22565b610b8e565b60006001600160e01b0319821663780e9d6360e01b14806103b957506103b982610c07565b92915050565b6060600080546103ce90611d92565b80601f01602080910402602001604051908101604052809291908181526020018280546103fa90611d92565b80156104475780601f1061041c57610100808354040283529160200191610447565b820191906000526020600020905b81548152906001019060200180831161042a57829003601f168201915b5050505050905090565b600061045c82610c57565b506000908152600460205260409020546001600160a01b031690565b600061048382610731565b9050806001600160a01b0316836001600160a01b0316036104f55760405162461bcd60e51b815260206004820152602160248201527f4552433732313a20617070726f76616c20746f2063757272656e74206f776e656044820152603960f91b60648201526084015b60405180910390fd5b336001600160a01b038216148061051157506105118133610340565b6105835760405162461bcd60e51b815260206004820152603d60248201527f4552433732313a20617070726f76652063616c6c6572206973206e6f7420746f60448201527f6b656e206f776e6572206f7220617070726f76656420666f7220616c6c00000060648201526084016104ec565b61058d8383610ca7565b505050565b61059c3382610d15565b6105b85760405162461bcd60e51b81526004016104ec90611dcc565b61058d838383610d94565b60006105ce83610791565b82106106305760405162461bcd60e51b815260206004820152602b60248201527f455243373231456e756d657261626c653a206f776e657220696e646578206f7560448201526a74206f6620626f756e647360a81b60648201526084016104ec565b506001600160a01b03919091166000908152600660209081526040808320938352929052205490565b61058d83838360405180602001604052806000815250610a32565b600061067f60085490565b82106106e25760405162461bcd60e51b815260206004820152602c60248201527f455243373231456e756d657261626c653a20676c6f62616c20696e646578206f60448201526b7574206f6620626f756e647360a01b60648201526084016104ec565b600882815481106106f5576106f5611e19565b90600052602060002001549050919050565b61070f610f05565b600c80546001600160a01b0319166001600160a01b0392909216919091179055565b6000818152600260205260408120546001600160a01b0316806103b95760405162461bcd60e51b8152602060048201526018602482015277115490cdcc8c4e881a5b9d985b1a59081d1bdad95b88125160421b60448201526064016104ec565b60006001600160a01b0382166107fb5760405162461bcd60e51b815260206004820152602960248201527f4552433732313a2061646472657373207a65726f206973206e6f7420612076616044820152683634b21037bbb732b960b91b60648201526084016104ec565b506001600160a01b031660009081526003602052604090205490565b61081f610f05565b6108296000610f5f565b565b6060600180546103ce90611d92565b606061084582610fb1565b6108615760405162461bcd60e51b81526004016104ec90611e2f565b6000828152600b60205260409020805461087a90611d92565b80601f01602080910402602001604051908101604052809291908181526020018280546108a690611d92565b80156108f35780601f106108c8576101008083540402835291602001916108f3565b820191906000526020600020905b8154815290600101906020018083116108d657829003601f168201915b50505050509050919050565b61090a338383610fce565b5050565b600061091984610fb1565b6109355760405162461bcd60e51b81526004016104ec90611e2f565b600c546001600160a01b031661097f5760405162461bcd60e51b815260206004820152600f60248201526e139bc81d995c9a599a595c881cd95d608a1b60448201526064016104ec565b600061098a85610b5e565b6000868152600b602090815260409182902091516109aa93929101611e66565b6040516020818303038152906040528051906020012090506109d4600a546001600160a01b031690565b6001600160a01b0316610a1f85858080601f016020809104026020016040519081016040528093929190818152602001838380828437600092019190915250869392505061109c9050565b6001600160a01b03161495945050505050565b610a3c3383610d15565b610a585760405162461bcd60e51b81526004016104ec90611dcc565b610a64848484846110c0565b50505050565b610a72610f05565b6000610a7d60085490565b610a88906001611f14565b9050610a9483826110f3565b6000818152600b60205260409020610aac8382611f75565b50807f82e047af96f6b7e5a52ea238aee0ca4188211301535ddf1fe126e140df6421b483604051610add9190611a74565b60405180910390a2505050565b6060610af582610c57565b6000610b0c60408051602081019091526000815290565b90506000815111610b2c5760405180602001604052806000815250610b57565b80610b368461126e565b604051602001610b47929190612035565b6040516020818303038152906040525b9392505050565b6000610b6982610fb1565b610b855760405162461bcd60e51b81526004016104ec90611e2f565b6103b982610731565b610b96610f05565b6001600160a01b038116610bfb5760405162461bcd60e51b815260206004820152602660248201527f4f776e61626c653a206e6577206f776e657220697320746865207a65726f206160448201526564647265737360d01b60648201526084016104ec565b610c0481610f5f565b50565b60006001600160e01b031982166380ac58cd60e01b1480610c3857506001600160e01b03198216635b5e139f60e01b145b806103b957506301ffc9a760e01b6001600160e01b03198316146103b9565b610c6081610fb1565b610c045760405162461bcd60e51b8152602060048201526018602482015277115490cdcc8c4e881a5b9d985b1a59081d1bdad95b88125160421b60448201526064016104ec565b600081815260046020526040902080546001600160a01b0319166001600160a01b0384169081179091558190610cdc82610731565b6001600160a01b03167f8c5be1e5ebec7d5bd14f71427d1e84f3dd0314c0f7b2291e5b200ac8c7c3b92560405160405180910390a45050565b600080610d2183610731565b9050806001600160a01b0316846001600160a01b03161480610d6857506001600160a01b0380821660009081526005602090815260408083209388168352929052205460ff165b80610d8c5750836001600160a01b0316610d8184610451565b6001600160a01b0316145b949350505050565b826001600160a01b0316610da782610731565b6001600160a01b031614610dcd5760405162461bcd60e51b81526004016104ec90612064565b6001600160a01b038216610e2f5760405162461bcd60e51b8152602060048201526024808201527f4552433732313a207472616e7366657220746f20746865207a65726f206164646044820152637265737360e01b60648201526084016104ec565b610e3c8383836001611301565b826001600160a01b0316610e4f82610731565b6001600160a01b031614610e755760405162461bcd60e51b81526004016104ec90612064565b600081815260046020908152604080832080546001600160a01b03199081169091556001600160a01b0387811680865260038552838620805460001901905590871680865283862080546001019055868652600290945282852080549092168417909155905184937fddf252ad1be2c89b69c2b068fc378daa952ba7f163c4a11628f55a4df523b3ef91a4505050565b600a546001600160a01b031633146108295760405162461bcd60e51b815260206004820181905260248201527f4f776e61626c653a2063616c6c6572206973206e6f7420746865206f776e657260448201526064016104ec565b600a80546001600160a01b038381166001600160a01b0319831681179093556040519116919082907f8be0079c531659141344cd1fd0a4f28419497f9722a3daafe3b4186f6b6457e090600090a35050565b6000908152600260205260409020546001600160a01b0316151590565b816001600160a01b0316836001600160a01b03160361102f5760405162461bcd60e51b815260206004820152601960248201527f4552433732313a20617070726f766520746f2063616c6c65720000000000000060448201526064016104ec565b6001600160a01b03838116600081815260056020908152604080832094871680845294825291829020805460ff191686151590811790915591519182527f17307eab39ab6107e8899845ad3d59bd9653f200f220920489ca2b5937696c31910160405180910390a3505050565b60008060006110ab8585611435565b915091506110b88161147a565b509392505050565b6110cb848484610d94565b6110d7848484846115c4565b610a645760405162461bcd60e51b81526004016104ec906120a9565b6001600160a01b0382166111495760405162461bcd60e51b815260206004820181905260248201527f4552433732313a206d696e7420746f20746865207a65726f206164647265737360448201526064016104ec565b61115281610fb1565b1561119f5760405162461bcd60e51b815260206004820152601c60248201527f4552433732313a20746f6b656e20616c7265616479206d696e7465640000000060448201526064016104ec565b6111ad600083836001611301565b6111b681610fb1565b156112035760405162461bcd60e51b815260206004820152601c60248201527f4552433732313a20746f6b656e20616c7265616479206d696e7465640000000060448201526064016104ec565b6001600160a01b038216600081815260036020908152604080832080546001019055848352600290915280822080546001600160a01b0319168417905551839291907fddf252ad1be2c89b69c2b068fc378daa952ba7f163c4a11628f55a4df523b3ef908290a45050565b6060600061127b836116c5565b600101905060008167ffffffffffffffff81111561129b5761129b611bf5565b6040519080825280601f01601f1916602001820160405280156112c5576020820181803683370190505b5090508181016020015b600019016f181899199a1a9b1b9c1cb0b131b232b360811b600a86061a8153600a85049450846112cf57509392505050565b60018111156113705760405162461bcd60e51b815260206004820152603560248201527f455243373231456e756d657261626c653a20636f6e7365637574697665207472604482015274185b9cd9995c9cc81b9bdd081cdd5c1c1bdc9d1959605a1b60648201526084016104ec565b816001600160a01b0385166113cc576113c781600880546000838152600960205260408120829055600182018355919091527ff3f7a9fe364faab93b216da50a3214154f22a0a2b415b23a84c8169e8b636ee30155565b6113ef565b836001600160a01b0316856001600160a01b0316146113ef576113ef858261179d565b6001600160a01b03841661140b576114068161183a565b61142e565b846001600160a01b0316846001600160a01b03161461142e5761142e84826118e9565b5050505050565b600080825160410361146b5760208301516040840151606085015160001a61145f8782858561192d565b94509450505050611473565b506000905060025b9250929050565b600081600481111561148e5761148e6120fb565b036114965750565b60018160048111156114aa576114aa6120fb565b036114f75760405162461bcd60e51b815260206004820152601860248201527f45434453413a20696e76616c6964207369676e6174757265000000000000000060448201526064016104ec565b600281600481111561150b5761150b6120fb565b036115585760405162461bcd60e51b815260206004820152601f60248201527f45434453413a20696e76616c6964207369676e6174757265206c656e6774680060448201526064016104ec565b600381600481111561156c5761156c6120fb565b03610c045760405162461bcd60e51b815260206004820152602260248201527f45434453413a20696e76616c6964207369676e6174757265202773272076616c604482015261756560f01b60648201526084016104ec565b60006001600160a01b0384163b156116ba57604051630a85bd0160e11b81526001600160a01b0385169063150b7a0290611608903390899088908890600401612111565b6020604051808303816000875af1925050508015611643575060408051601f3d908101601f191682019092526116409181019061214e565b60015b6116a0573d808015611671576040519150601f19603f3d011682016040523d82523d6000602084013e611676565b606091505b5080516000036116985760405162461bcd60e51b81526004016104ec906120a9565b805181602001fd5b6001600160e01b031916630a85bd0160e11b149050610d8c565b506001949350505050565b60008072184f03e93ff9f4daa797ed6e38ed64bf6a1f0160401b83106117045772184f03e93ff9f4daa797ed6e38ed64bf6a1f0160401b830492506040015b6d04ee2d6d415b85acef81000000008310611730576d04ee2d6d415b85acef8100000000830492506020015b662386f26fc10000831061174e57662386f26fc10000830492506010015b6305f5e1008310611766576305f5e100830492506008015b612710831061177a57612710830492506004015b6064831061178c576064830492506002015b600a83106103b95760010192915050565b600060016117aa84610791565b6117b4919061216b565b600083815260076020526040902054909150808214611807576001600160a01b03841660009081526006602090815260408083208584528252808320548484528184208190558352600790915290208190555b5060009182526007602090815260408084208490556001600160a01b039094168352600681528383209183525290812055565b60085460009061184c9060019061216b565b6000838152600960205260408120546008805493945090928490811061187457611874611e19565b90600052602060002001549050806008838154811061189557611895611e19565b60009182526020808320909101929092558281526009909152604080822084905585825281205560088054806118cd576118cd61217e565b6001900381819060005260206000200160009055905550505050565b60006118f483610791565b6001600160a01b039093166000908152600660209081526040808320868452825280832085905593825260079052919091209190915550565b6000807f7fffffffffffffffffffffffffffffff5d576e7357a4501ddfe92f46681b20a083111561196457506000905060036119e8565b6040805160008082526020820180845289905260ff881692820192909252606081018690526080810185905260019060a0016020604051602081039080840390855afa1580156119b8573d6000803e3d6000fd5b5050604051601f1901519150506001600160a01b0381166119e1576000600192509250506119e8565b9150600090505b94509492505050565b6001600160e01b031981168114610c0457600080fd5b600060208284031215611a1957600080fd5b8135610b57816119f1565b60005b83811015611a3f578181015183820152602001611a27565b50506000910152565b60008151808452611a60816020860160208601611a24565b601f01601f19169290920160200192915050565b602081526000610b576020830184611a48565b600060208284031215611a9957600080fd5b5035919050565b80356001600160a01b0381168114611ab757600080fd5b919050565b60008060408385031215611acf57600080fd5b611ad883611aa0565b946020939093013593505050565b600080600060608486031215611afb57600080fd5b611b0484611aa0565b9250611b1260208501611aa0565b9150604084013590509250925092565b600060208284031215611b3457600080fd5b610b5782611aa0565b60008060408385031215611b5057600080fd5b611b5983611aa0565b915060208301358015158114611b6e57600080fd5b809150509250929050565b600080600060408486031215611b8e57600080fd5b83359250602084013567ffffffffffffffff80821115611bad57600080fd5b818601915086601f830112611bc157600080fd5b813581811115611bd057600080fd5b876020828501011115611be257600080fd5b6020830194508093505050509250925092565b634e487b7160e01b600052604160045260246000fd5b600067ffffffffffffffff80841115611c2657611c26611bf5565b604051601f8501601f19908116603f01168101908282118183101715611c4e57611c4e611bf5565b81604052809350858152868686011115611c6757600080fd5b858560208301376000602087830101525050509392505050565b60008060008060808587031215611c9757600080fd5b611ca085611aa0565b9350611cae60208601611aa0565b925060408501359150606085013567ffffffffffffffff811115611cd157600080fd5b8501601f81018713611ce257600080fd5b611cf187823560208401611c0b565b91505092959194509250565b60008060408385031215611d1057600080fd5b611d1983611aa0565b9150602083013567ffffffffffffffff811115611d3557600080fd5b8301601f81018513611d4657600080fd5b611d5585823560208401611c0b565b9150509250929050565b60008060408385031215611d7257600080fd5b611d7b83611aa0565b9150611d8960208401611aa0565b90509250929050565b600181811c90821680611da657607f821691505b602082108103611dc657634e487b7160e01b600052602260045260246000fd5b50919050565b6020808252602d908201527f4552433732313a2063616c6c6572206973206e6f7420746f6b656e206f776e6560408201526c1c881bdc88185c1c1c9bdd9959609a1b606082015260800190565b634e487b7160e01b600052603260045260246000fd5b6020808252601a908201527f436572746966696361746520646f6573206e6f74206578697374000000000000604082015260600190565b6bffffffffffffffffffffffff198360601b1681526000601460008454611e8c81611d92565b60018281168015611ea45760018114611ebd57611ef0565b60ff198416888701528215158302880186019450611ef0565b8860005260208060002060005b85811015611ee55781548b82018a0152908401908201611eca565b505050858389010194505b509298975050505050505050565b634e487b7160e01b600052601160045260246000fd5b808201808211156103b9576103b9611efe565b601f82111561058d57600081815260208120601f850160051c81016020861015611f4e5750805b601f850160051c820191505b81811015611f6d57828155600101611f5a565b505050505050565b815167ffffffffffffffff811115611f8f57611f8f611bf5565b611fa381611f9d8454611d92565b84611f27565b602080601f831160018114611fd85760008415611fc05750858301515b600019600386901b1c1916600185901b178555611f6d565b600085815260208120601f198616915b8281101561200757888601518255948401946001909101908401611fe8565b50858210156120255787850151600019600388901b60f8161c191681555b5050505050600190811b01905550565b60008351612047818460208801611a24565b83519083019061205b818360208801611a24565b01949350505050565b60208082526025908201527f4552433732313a207472616e736665722066726f6d20696e636f72726563742060408201526437bbb732b960d91b606082015260800190565b60208082526032908201527f4552433732313a207472616e7366657220746f206e6f6e20455243373231526560408201527131b2b4bb32b91034b6b83632b6b2b73a32b960711b606082015260800190565b634e487b7160e01b600052602160045260246000fd5b6001600160a01b038581168252841660208201526040810183905260806060820181905260009061214490830184611a48565b9695505050505050565b60006020828403121561216057600080fd5b8151610b57816119f1565b818103818111156103b9576103b9611efe565b634e487b7160e01b600052603160045260246000fdfea2646970667358221220c3e64f9dba9674246cfd8b02809ab6a8335a514ab309bc40c2e6ad7f45ce90ce64736f6c63430008130033",
    "sourcePath": "i:/Practice/hard_hat/contracts/test.sol",
    "compiler": {
        "name": "solc",
        "version": "0.8.19+commit.7dd6d404"
    },
    "functionHashes": {
        "approve(address,uint256)": "095ea7b3",
        "balanceOf(address)": "70a08231",
        "certificateVerifier()": "dfd93d3b",
        "getApproved(uint256)": "081812fc",
        "getCertificateMetadata(uint256)": "97cd8c1c",
        "isApprovedForAll(address,address)": "e985e9c5",
        "issueCertificate(address,string)": "bb721aab",
        "name()": "06fdde03",
        "owner()": "8da5cb5b",
        "ownerOf(uint256)": "6352211e",
        "recipientOf(uint256)": "f14cf045",
        "renounceOwnership()": "715018a6",
        "safeTransferFrom(address,address,uint256)": "42842e0e",
        "safeTransferFrom(address,address,uint256,bytes)": "b88d4fde",
        "setApprovalForAll(address,bool)": "a22cb465",
        "setVerifier(address)": "5437988d",
        "supportsInterface(bytes4)": "01ffc9a7",
        "symbol()": "95d89b41",
        "tokenByIndex(uint256)": "4f6ccce7",
        "tokenOfOwnerByIndex(address,uint256)": "2f745c59",
        "tokenURI(uint256)": "c87b56dd",
        "totalSupply()": "18160ddd",
        "transferFrom(address,address,uint256)": "23b872dd",
        "transferOwnership(address)": "f2fde38b",
        "verifyCertificate(uint256,bytes)": "b34de123"
    },
    "gasEstimates": {
        "creation": {
            "codeDepositCost": "1730000",
            "executionCost": "infinite",
            "totalCost": "infinite"
        },
        "external": {
            "approve(address,uint256)": "infinite",
            "balanceOf(address)": "2722",
            "certificateVerifier()": "2381",
            "getApproved(uint256)": "4828",
            "getCertificateMetadata(uint256)": "infinite",
            "isApprovedForAll(address,address)": "infinite",
            "issueCertificate(address,string)": "infinite",
            "name()": "infinite",
            "owner()": "2376",
            "ownerOf(uint256)": "2649",
            "recipientOf(uint256)": "infinite",
            "renounceOwnership()": "infinite",
            "safeTransferFrom(address,address,uint256)": "infinite",
            "safeTransferFrom(address,address,uint256,bytes)": "infinite",
            "setApprovalForAll(address,bool)": "26794",
            "setVerifier(address)": "26824",
            "supportsInterface(bytes4)": "infinite",
            "symbol()": "infinite",
            "tokenByIndex(uint256)": "6782",
            "tokenOfOwnerByIndex(address,uint256)": "4953",
            "tokenURI(uint256)": "infinite",
            "totalSupply()": "2393",
            "transferFrom(address,address,uint256)": "infinite",
            "transferOwnership(address)": "28446",
            "verifyCertificate(uint256,bytes)": "infinite"
        }
    }
}